{
  "contractName": "Algorithm",
  "abi": [
    {
      "constant": true,
      "inputs": [
        {
          "name": "x",
          "type": "int256"
        }
      ],
      "name": "factorial",
      "outputs": [
        {
          "name": "",
          "type": "int256"
        }
      ],
      "payable": false,
      "stateMutability": "pure",
      "type": "function"
    },
    {
      "constant": true,
      "inputs": [
        {
          "name": "arr",
          "type": "uint256[]"
        }
      ],
      "name": "selectSort",
      "outputs": [
        {
          "name": "",
          "type": "uint256[]"
        }
      ],
      "payable": false,
      "stateMutability": "pure",
      "type": "function"
    }
  ],
  "bytecode": "0x608060405234801561001057600080fd5b5061031b806100206000396000f3fe60806040526004361061004c576000357c0100000000000000000000000000000000000000000000000000000000900463ffffffff1680633b105486146100515780635ad78e8a1461016b575b600080fd5b34801561005d57600080fd5b506101146004803603602081101561007457600080fd5b810190808035906020019064010000000081111561009157600080fd5b8201836020820111156100a357600080fd5b803590602001918460208302840111640100000000831117156100c557600080fd5b919080806020026020016040519081016040528093929190818152602001838360200280828437600081840152601f19601f8201169050808301925050505050505091929192905050506101ba565b6040518080602001828103825283818151815260200191508051906020019060200280838360005b8381101561015757808201518184015260208101905061013c565b505050509050019250505060405180910390f35b34801561017757600080fd5b506101a46004803603602081101561018e57600080fd5b81019080803590602001909291905050506102a8565b6040518082815260200191505060405180910390f35b606060008251905060008090505b8181101561029e5760008190505b828110156102905784818151811015156101ec57fe5b90602001906020020151858381518110151561020457fe5b906020019060200201511115610283576000858381518110151561022457fe5b906020019060200201519050858281518110151561023e57fe5b90602001906020020151868481518110151561025657fe5b906020019060200201818152505080868381518110151561027357fe5b9060200190602002018181525050505b80806001019150506101d6565b5080806001019150506101c8565b5082915050919050565b6000806001905060008314156102c25760019150506102ea565b60008390505b60008113156102e45780820291508080600190039150506102c8565b50809150505b91905056fea165627a7a723058200858575bbc1f8e88118bb50167852cb015a1e7ebd5858261ba0b12907f5f899f0029",
  "source": "pragma solidity ^0.5.0;\r\n\r\ncontract Algorithm {\r\n    function factorial(int x) public pure returns(int){\r\n        int value = 1;\r\n        if(x == 0){\r\n            return 1;\r\n        }\r\n        for(int i = x; i > 0; i--){\r\n            value *= i;\r\n        }\r\n        return value;\r\n    }\r\n\r\n    function selectSort(uint[] memory arr) public pure returns(uint[] memory){\r\n        uint length = arr.length;\r\n        for(uint i = 0; i < length; i++){\r\n            for(uint j = i; j < length; j++){\r\n                if(arr[i] > arr[j]){\r\n                    uint t = arr[i];\r\n                    arr[i] = arr[j];\r\n                    arr[j] = t;\r\n                }\r\n            }\r\n        }\r\n        return arr;\r\n    }\r\n}",
  "sourcePath": "G:/ethereum-dev/myproject/contracts/Algorithm.sol",
  "compiler": {
    "name": "solc",
    "version": "0.5.0+commit.1d4f565a.Emscripten.clang"
  },
  "schemaVersion": "3.0.2",
  "updatedAt": "2019-02-22T06:46:36.191Z",
  "devdoc": {
    "methods": {}
  },
  "userdoc": {
    "methods": {}
  }
}