{
  "contractName": "Algorithm",
  "abi": [
    {
      "constant": true,
      "inputs": [
        {
          "name": "x",
          "type": "int256"
        }
      ],
      "name": "factorial",
      "outputs": [
        {
          "name": "",
          "type": "int256"
        }
      ],
      "payable": false,
      "stateMutability": "pure",
      "type": "function",
      "signature": "0x5ad78e8a"
    },
    {
      "constant": true,
      "inputs": [
        {
          "name": "arr",
          "type": "uint256[]"
        },
        {
          "name": "length",
          "type": "uint256"
        }
      ],
      "name": "selectSort",
      "outputs": [
        {
          "name": "",
          "type": "uint256[]"
        }
      ],
      "payable": false,
      "stateMutability": "pure",
      "type": "function",
      "signature": "0xe428fb8a"
    },
    {
      "constant": true,
      "inputs": [],
      "name": "testUnit",
      "outputs": [
        {
          "name": "t",
          "type": "address"
        }
      ],
      "payable": false,
      "stateMutability": "view",
      "type": "function",
      "signature": "0x3185824e"
    },
    {
      "constant": true,
      "inputs": [],
      "name": "matrixMulti",
      "outputs": [
        {
          "name": "",
          "type": "uint256"
        }
      ],
      "payable": false,
      "stateMutability": "pure",
      "type": "function",
      "signature": "0x045bade2"
    },
    {
      "constant": true,
      "inputs": [
        {
          "name": "x",
          "type": "int256[]"
        },
        {
          "name": "y",
          "type": "int256[]"
        }
      ],
      "name": "linearRegression",
      "outputs": [
        {
          "name": "parameter",
          "type": "int256[]"
        }
      ],
      "payable": false,
      "stateMutability": "pure",
      "type": "function",
      "signature": "0xfefbb62c"
    }
  ],
  "bytecode": "0x608060405234801561001057600080fd5b5061083a806100206000396000f3fe60806040526004361061006d576000357c0100000000000000000000000000000000000000000000000000000000900463ffffffff168063045bade2146100725780633185824e1461009d5780635ad78e8a146100f4578063e428fb8a14610143578063fefbb62c14610267575b600080fd5b34801561007e57600080fd5b50610087610415565b6040518082815260200191505060405180910390f35b3480156100a957600080fd5b506100b261066b565b604051808273ffffffffffffffffffffffffffffffffffffffff1673ffffffffffffffffffffffffffffffffffffffff16815260200191505060405180910390f35b34801561010057600080fd5b5061012d6004803603602081101561011757600080fd5b8101908080359060200190929190505050610682565b6040518082815260200191505060405180910390f35b34801561014f57600080fd5b506102106004803603604081101561016657600080fd5b810190808035906020019064010000000081111561018357600080fd5b82018360208201111561019557600080fd5b803590602001918460208302840111640100000000831117156101b757600080fd5b919080806020026020016040519081016040528093929190818152602001838360200280828437600081840152601f19601f820116905080830192505050505050509192919290803590602001909291905050506106c9565b6040518080602001828103825283818151815260200191508051906020019060200280838360005b83811015610253578082015181840152602081019050610238565b505050509050019250505060405180910390f35b34801561027357600080fd5b506103be6004803603604081101561028a57600080fd5b81019080803590602001906401000000008111156102a757600080fd5b8201836020820111156102b957600080fd5b803590602001918460208302840111640100000000831117156102db57600080fd5b919080806020026020016040519081016040528093929190818152602001838360200280828437600081840152601f19601f8201169050808301925050505050505091929192908035906020019064010000000081111561033b57600080fd5b82018360208201111561034d57600080fd5b8035906020019184602083028401116401000000008311171561036f57600080fd5b919080806020026020016040519081016040528093929190818152602001838360200280828437600081840152601f19601f8201169050808301925050505050505091929192905050506107b1565b6040518080602001828103825283818151815260200191508051906020019060200280838360005b838110156104015780820151818401526020810190506103e6565b505050509050019250505060405180910390f35b600061041f6107bc565b606060405190810160405280606060405190810160405280600160ff168152602001600260ff168152602001600360ff168152508152602001606060405190810160405280600160ff168152602001600260ff168152602001600360ff168152508152602001606060405190810160405280600160ff168152602001600260ff168152602001600360ff1681525081525090506104ba6107bc565b606060405190810160405280606060405190810160405280600160ff168152602001600260ff168152602001600360ff168152508152602001606060405190810160405280600160ff168152602001600260ff168152602001600360ff168152508152602001606060405190810160405280600160ff168152602001600260ff168152602001600360ff168152508152509050600060039050600083600060038110151561056457fe5b60200201515060039050600060039050600084600060038110151561058557fe5b60200201515060039050600080905082841415806105a35750818514155b156105ad57600080fd5b60008090505b8581101561065d5760008090505b8381101561064f57600080905060008090505b8681101561063b5789816003811015156105ea57fe5b6020020151836003811015156105fc57fe5b60200201518b8560038110151561060f57fe5b60200201518260038110151561062157fe5b60200201510260ff168201915080806001019150506105d4565b5080840193505080806001019150506105c1565b5080806001019150506105b3565b508097505050505050505090565b6000610675610415565b5060003390508091505090565b60008060019050600083141561069c5760019150506106c4565b60008390505b60008113156106be5780820291508080600190039150506106a2565b50809150505b919050565b606060008090505b828110156107a75760008190505b838110156107995784818151811015156106f557fe5b90602001906020020151858381518110151561070d57fe5b90602001906020020151111561078c576000858381518110151561072d57fe5b906020019060200201519050858281518110151561074757fe5b90602001906020020151868481518110151561075f57fe5b906020019060200201818152505080868381518110151561077c57fe5b9060200190602002018181525050505b80806001019150506106df565b5080806001019150506106d1565b5082905092915050565b606080905092915050565b610120604051908101604052806003905b6107d56107eb565b8152602001906001900390816107cd5790505090565b60606040519081016040528060039060208202803883398082019150509050509056fea165627a7a72305820663dcc4f7f081d0ac00e899b525bac85e46faf9a7d226577ccbe43d084929c380029",
  "source": "pragma solidity ^0.5.0;\r\n//pragma experimental ABIEncoderV2;\r\n\r\ncontract Algorithm {\r\n    function factorial(int x) public pure returns(int){\r\n        int value = 1;\r\n        if(x == 0){\r\n            return 1;\r\n        }\r\n        for(int i = x; i > 0; i--){\r\n            value *= i;\r\n        }\r\n        return value;\r\n    }\r\n\r\n    function selectSort(uint[] memory arr, uint length) public pure returns(uint[] memory){\r\n        for(uint i = 0; i < length; i++){\r\n            for(uint j = i; j < length; j++){\r\n                if(arr[i] > arr[j]){\r\n                    uint t = arr[i];\r\n                    arr[i] = arr[j];\r\n                    arr[j] = t;\r\n                }\r\n            }\r\n        }\r\n        return arr;\r\n    }\r\n\r\n    function testUnit() public view returns(address t){\r\n        matrixMulti();\r\n        address addr = msg.sender;\r\n        return addr;\r\n    }\r\n\r\n    //矩阵相乘，取结果所有元素的和\r\n    function matrixMulti() public pure returns(uint){\r\n        uint8[3][3] memory  m1 = [[1,2,3],[1,2,3],[1,2,3]]; //矩阵可随意定义\r\n        uint8[3][3] memory m2 = [[1,2,3],[1,2,3],[1,2,3]];\r\n        uint m1_raw = m1.length;\r\n        uint m1_column = m1[0].length;\r\n        uint m2_raw = m2.length;\r\n        uint m2_column = m2[0].length;\r\n        uint SUM = 0;\r\n        if(m1_column != m2_raw || m1_raw != m2_column){\r\n            revert();\r\n        }\r\n        for(uint i = 0; i < m1_raw; i++){\r\n            for(uint j = 0; j < m2_column; j++){\r\n                uint sum = 0;\r\n                for(uint k = 0; k < m2_raw; k++){\r\n                    sum += m1[i][k] * m2[k][j];\r\n                }\r\n                SUM += sum;\r\n            }\r\n        }\r\n        return SUM;\r\n    }\r\n\r\n    function linearRegression(int[] memory x, int[] memory y) public pure returns(int[] memory parameter){\r\n\r\n        return parameter;\r\n    }\r\n}",
  "sourcePath": "G:\\ethereum-dev\\myproject\\contracts\\Algorithm.sol",
  "compiler": {
    "name": "solc",
    "version": "0.5.0+commit.1d4f565a.Emscripten.clang"
  },
  "schemaVersion": "3.0.2",
  "updatedAt": "2019-03-01T06:43:20.332Z",
  "devdoc": {
    "methods": {}
  },
  "userdoc": {
    "methods": {}
  }
}