{
  "contractName": "Algorithm",
  "abi": [
    {
      "constant": false,
      "inputs": [
        {
          "name": "ability",
          "type": "uint256[]"
        },
        {
          "name": "length",
          "type": "uint256"
        }
      ],
      "name": "countNGcd",
      "outputs": [
        {
          "name": "",
          "type": "uint256"
        }
      ],
      "payable": false,
      "stateMutability": "nonpayable",
      "type": "function"
    },
    {
      "constant": true,
      "inputs": [
        {
          "name": "k",
          "type": "uint256"
        },
        {
          "name": "x",
          "type": "uint256"
        }
      ],
      "name": "getMk",
      "outputs": [
        {
          "name": "",
          "type": "uint256"
        }
      ],
      "payable": false,
      "stateMutability": "pure",
      "type": "function"
    },
    {
      "constant": true,
      "inputs": [
        {
          "name": "x",
          "type": "uint256[]"
        },
        {
          "name": "y",
          "type": "uint256[]"
        },
        {
          "name": "length",
          "type": "uint256"
        }
      ],
      "name": "execUnit",
      "outputs": [
        {
          "name": "",
          "type": "uint256"
        }
      ],
      "payable": false,
      "stateMutability": "pure",
      "type": "function"
    },
    {
      "constant": true,
      "inputs": [
        {
          "name": "x",
          "type": "int256"
        }
      ],
      "name": "factorial",
      "outputs": [
        {
          "name": "",
          "type": "int256"
        }
      ],
      "payable": false,
      "stateMutability": "pure",
      "type": "function"
    },
    {
      "constant": true,
      "inputs": [
        {
          "name": "arr",
          "type": "uint256[]"
        },
        {
          "name": "length",
          "type": "uint256"
        }
      ],
      "name": "selectSort",
      "outputs": [
        {
          "name": "",
          "type": "uint256[]"
        }
      ],
      "payable": false,
      "stateMutability": "pure",
      "type": "function"
    },
    {
      "constant": true,
      "inputs": [],
      "name": "testUnit",
      "outputs": [
        {
          "name": "t",
          "type": "address"
        }
      ],
      "payable": false,
      "stateMutability": "view",
      "type": "function"
    },
    {
      "constant": true,
      "inputs": [],
      "name": "matrixMulti",
      "outputs": [
        {
          "name": "",
          "type": "uint256"
        }
      ],
      "payable": false,
      "stateMutability": "pure",
      "type": "function"
    },
    {
      "constant": true,
      "inputs": [
        {
          "name": "_a",
          "type": "int256"
        }
      ],
      "name": "tsetFixedCompute",
      "outputs": [
        {
          "name": "",
          "type": "int256"
        }
      ],
      "payable": false,
      "stateMutability": "pure",
      "type": "function"
    }
  ],
  "bytecode": "0x608060405234801561001057600080fd5b50610de4806100206000396000f3fe60806040526004361061008e576000357c0100000000000000000000000000000000000000000000000000000000900463ffffffff168063045bade214610093578063303b7f02146100be5780633185824e1461011757806343334baa1461016e578063455405f7146102515780635ad78e8a146102a05780639cb9f96c146102ef578063e428fb8a14610466575b600080fd5b34801561009f57600080fd5b506100a861058a565b6040518082815260200191505060405180910390f35b3480156100ca57600080fd5b50610101600480360360408110156100e157600080fd5b8101908080359060200190929190803590602001909291905050506107e0565b6040518082815260200191505060405180910390f35b34801561012357600080fd5b5061012c610826565b604051808273ffffffffffffffffffffffffffffffffffffffff1673ffffffffffffffffffffffffffffffffffffffff16815260200191505060405180910390f35b34801561017a57600080fd5b5061023b6004803603604081101561019157600080fd5b81019080803590602001906401000000008111156101ae57600080fd5b8201836020820111156101c057600080fd5b803590602001918460208302840111640100000000831117156101e257600080fd5b919080806020026020016040519081016040528093929190818152602001838360200280828437600081840152601f19601f8201169050808301925050505050505091929192908035906020019092919050505061083d565b6040518082815260200191505060405180910390f35b34801561025d57600080fd5b5061028a6004803603602081101561027457600080fd5b8101908080359060200190929190505050610a6b565b6040518082815260200191505060405180910390f35b3480156102ac57600080fd5b506102d9600480360360208110156102c357600080fd5b8101908080359060200190929190505050610a8b565b6040518082815260200191505060405180910390f35b3480156102fb57600080fd5b506104506004803603606081101561031257600080fd5b810190808035906020019064010000000081111561032f57600080fd5b82018360208201111561034157600080fd5b8035906020019184602083028401116401000000008311171561036357600080fd5b919080806020026020016040519081016040528093929190818152602001838360200280828437600081840152601f19601f820116905080830192505050505050509192919290803590602001906401000000008111156103c357600080fd5b8201836020820111156103d557600080fd5b803590602001918460208302840111640100000000831117156103f757600080fd5b919080806020026020016040519081016040528093929190818152602001838360200280828437600081840152601f19601f82011690508083019250505050505050919291929080359060200190929190505050610ad2565b6040518082815260200191505060405180910390f35b34801561047257600080fd5b506105336004803603604081101561048957600080fd5b81019080803590602001906401000000008111156104a657600080fd5b8201836020820111156104b857600080fd5b803590602001918460208302840111640100000000831117156104da57600080fd5b919080806020026020016040519081016040528093929190818152602001838360200280828437600081840152601f19601f82011690508083019250505050505050919291929080359060200190929190505050610b49565b6040518080602001828103825283818151815260200191508051906020019060200280838360005b8381101561057657808201518184015260208101905061055b565b505050509050019250505060405180910390f35b6000610594610c31565b606060405190810160405280606060405190810160405280600160ff168152602001600260ff168152602001600360ff168152508152602001606060405190810160405280600160ff168152602001600260ff168152602001600360ff168152508152602001606060405190810160405280600160ff168152602001600260ff168152602001600360ff16815250815250905061062f610c31565b606060405190810160405280606060405190810160405280600160ff168152602001600260ff168152602001600360ff168152508152602001606060405190810160405280600160ff168152602001600260ff168152602001600360ff168152508152602001606060405190810160405280600160ff168152602001600260ff168152602001600360ff16815250815250905060006003905060008360006003811015156106d957fe5b6020020151506003905060006003905060008460006003811015156106fa57fe5b60200201515060039050600080905082841415806107185750818514155b1561072257600080fd5b60008090505b858110156107d25760008090505b838110156107c457600080905060008090505b868110156107b057898160038110151561075f57fe5b60200201518360038110151561077157fe5b60200201518b8560038110151561078457fe5b60200201518260038110151561079657fe5b60200201510260ff16820191508080600101915050610749565b508084019350508080600101915050610736565b508080600101915050610728565b508097505050505050505090565b6000808390505b828111151561081a57600081848115156107fd57fe5b06141561080d5780915050610820565b80806001019150506107e7565b50600090505b92915050565b600061083061058a565b5060003390508091505090565b600080610848610c60565b604051809103906000f080158015610864573d6000803e3d6000fd5b50905060018314156108915783600081518110151561087f57fe5b90602001906020020151915050610a65565b60008173ffffffffffffffffffffffffffffffffffffffff1663b9650dac8660008151811015156108be57fe5b906020019060200201518760018151811015156108d757fe5b906020019060200201516040518363ffffffff167c01000000000000000000000000000000000000000000000000000000000281526004018083815260200182815260200192505050602060405180830381600087803b15801561093a57600080fd5b505af115801561094e573d6000803e3d6000fd5b505050506040513d602081101561096457600080fd5b810190808051906020019092919050505090506000600290505b84811015610a5e578273ffffffffffffffffffffffffffffffffffffffff1663b9650dac8388848151811015156109b157fe5b906020019060200201516040518363ffffffff167c01000000000000000000000000000000000000000000000000000000000281526004018083815260200182815260200192505050602060405180830381600087803b158015610a1457600080fd5b505af1158015610a28573d6000803e3d6000fd5b505050506040513d6020811015610a3e57600080fd5b81019080805190602001909291905050509150808060010191505061097e565b5080925050505b92915050565b600080829050600a8082811515610a7e57fe5b0502905080915050919050565b600080600190506000831415610aa5576001915050610acd565b60008390505b6000811315610ac7578082029150808060019003915050610aab565b50809150505b919050565b60008082111515610ae257600080fd5b600080905060008090505b83811015610b3d5760008582815181101515610b0557fe5b906020019060200201518783815181101515610b1d57fe5b906020019060200201510290508083019250508080600101915050610aed565b50809150509392505050565b606060008090505b82811015610c275760008190505b83811015610c19578481815181101515610b7557fe5b906020019060200201518583815181101515610b8d57fe5b906020019060200201511115610c0c5760008583815181101515610bad57fe5b9060200190602002015190508582815181101515610bc757fe5b906020019060200201518684815181101515610bdf57fe5b9060200190602002018181525050808683815181101515610bfc57fe5b9060200190602002018181525050505b8080600101915050610b5f565b508080600101915050610b51565b5082905092915050565b610120604051908101604052806003905b610c4a610c70565b815260200190600190039081610c425790505090565b60405161012580610c9483390190565b60606040519081016040528060039060208202803883398082019150509050509056fe608060405234801561001057600080fd5b50610105806100206000396000f3fe608060405260043610603f576000357c0100000000000000000000000000000000000000000000000000000000900463ffffffff168063b9650dac146044575b600080fd5b348015604f57600080fd5b50608360048036036040811015606457600080fd5b8101908080359060200190929190803590602001909291905050506099565b6040518082815260200191505060405180910390f35b60008183101560af576000839050829350809250505b600082141560be5782905060d3565b60d082838581151560cb57fe5b066099565b90505b9291505056fea165627a7a723058207fe3d8ac1be82b244088c7cce0df8492177f6feab3a185f683691f847177a9800029a165627a7a723058202663ad6f6d3ce603b579fa3c41a5246b2b0998e24b66fc440a5adccb6d27a0c70029",
  "source": "pragma solidity ^0.5.0;\r\n\r\nimport './Utils.sol';\r\n\r\ncontract Algorithm {\r\n\r\n    function abs(int a) private pure returns(int){\r\n        if(a < 0){\r\n            return -a;\r\n        }\r\n        return a;\r\n    }\r\n\r\n    // 计算 N 个数的最大公约数\r\n    function countNGcd(uint[] memory ability, uint length) public returns(uint){\r\n        Utils utils = new Utils();\r\n        if(length == 1){\r\n            return ability[0];\r\n        }\r\n        uint c = utils.gcd(ability[0], ability[1]);\r\n        for(uint i = 2; i < length; i++){\r\n            c = utils.gcd(c, ability[i]);\r\n        }\r\n        return c;\r\n    }\r\n\r\n    function getMk(uint k, uint x) public pure returns(uint){\r\n        for(uint i = k; i <= x; i++){\r\n            if(x % i == 0){\r\n                return i;\r\n            }\r\n        }\r\n        return 0;\r\n    }\r\n\r\n    // 计算向量 x,y 乘积并取和\r\n    function execUnit(uint[] memory x, uint[] memory y, uint length) public pure returns(uint){\r\n        require(length > 0);\r\n        uint sum = 0;\r\n        for(uint i = 0; i < length; i++){\r\n            uint r = x[i]*y[i];\r\n            sum = sum + r;\r\n        }\r\n        return sum;\r\n    }\r\n\r\n    function factorial(int x) public pure returns(int){\r\n        int value = 1;\r\n        if(x == 0){\r\n            return 1;\r\n        }\r\n        for(int i = x; i > 0; i--){\r\n            value *= i;\r\n        }\r\n        return value;\r\n    }\r\n\r\n    function selectSort(uint[] memory arr, uint length) public pure returns(uint[] memory){\r\n        for(uint i = 0; i < length; i++){\r\n            for(uint j = i; j < length; j++){\r\n                if(arr[i] > arr[j]){\r\n                    uint t = arr[i];\r\n                    arr[i] = arr[j];\r\n                    arr[j] = t;\r\n                }\r\n            }\r\n        }\r\n        return arr;\r\n    }\r\n\r\n    function testUnit() public view returns(address t){\r\n        matrixMulti();\r\n        address addr = msg.sender;\r\n        return addr;\r\n    }\r\n\r\n    //矩阵相乘，取结果所有元素的和\r\n    function matrixMulti() public pure returns(uint){\r\n        uint8[3][3] memory  m1 = [[1,2,3],[1,2,3],[1,2,3]]; //矩阵可随意定义\r\n        uint8[3][3] memory m2 = [[1,2,3],[1,2,3],[1,2,3]];\r\n        uint m1_raw = m1.length;\r\n        uint m1_column = m1[0].length;\r\n        uint m2_raw = m2.length;\r\n        uint m2_column = m2[0].length;\r\n        uint SUM = 0;\r\n        if(m1_column != m2_raw || m1_raw != m2_column){\r\n            revert();\r\n        }\r\n        for(uint i = 0; i < m1_raw; i++){\r\n            for(uint j = 0; j < m2_column; j++){\r\n                uint sum = 0;\r\n                for(uint k = 0; k < m2_raw; k++){\r\n                    sum += m1[i][k] * m2[k][j];\r\n                }\r\n                SUM += sum;\r\n            }\r\n        }\r\n        return SUM;\r\n    }\r\n\r\n    function tsetFixedCompute(int _a) public pure returns(int){\r\n        int a = _a;\r\n        a = a / 10 * 10;\r\n        return a;\r\n    }\r\n    /*\r\n    function linearRegression(int[] memory x, int[] memory y) public pure returns(int[] memory parameter){\r\n\r\n        return parameter;\r\n    }\r\n    */\r\n}",
  "sourcePath": "G:\\ethereum-dev\\myproject\\contracts\\Algorithm.sol",
  "compiler": {
    "name": "solc",
    "version": "0.5.0+commit.1d4f565a.Emscripten.clang"
  },
  "schemaVersion": "3.0.2",
  "updatedAt": "2019-03-23T07:00:37.379Z",
  "devdoc": {
    "methods": {}
  },
  "userdoc": {
    "methods": {}
  }
}