{
  "contractName": "Conference",
  "abi": [
    {
      "constant": true,
      "inputs": [
        {
          "name": "",
          "type": "address"
        }
      ],
      "name": "registrantsPaid",
      "outputs": [
        {
          "name": "",
          "type": "uint256"
        }
      ],
      "payable": false,
      "stateMutability": "view",
      "type": "function"
    },
    {
      "constant": true,
      "inputs": [],
      "name": "organizer",
      "outputs": [
        {
          "name": "",
          "type": "address"
        }
      ],
      "payable": false,
      "stateMutability": "view",
      "type": "function"
    },
    {
      "constant": true,
      "inputs": [],
      "name": "quota",
      "outputs": [
        {
          "name": "",
          "type": "uint256"
        }
      ],
      "payable": false,
      "stateMutability": "view",
      "type": "function"
    },
    {
      "constant": true,
      "inputs": [],
      "name": "numRegistrants",
      "outputs": [
        {
          "name": "",
          "type": "uint256"
        }
      ],
      "payable": false,
      "stateMutability": "view",
      "type": "function"
    },
    {
      "inputs": [],
      "payable": false,
      "stateMutability": "nonpayable",
      "type": "constructor"
    },
    {
      "anonymous": false,
      "inputs": [
        {
          "indexed": false,
          "name": "_from",
          "type": "address"
        },
        {
          "indexed": false,
          "name": "_amount",
          "type": "uint256"
        }
      ],
      "name": "Deposit",
      "type": "event"
    },
    {
      "anonymous": false,
      "inputs": [
        {
          "indexed": false,
          "name": "_to",
          "type": "address"
        },
        {
          "indexed": false,
          "name": "_amount",
          "type": "uint256"
        }
      ],
      "name": "Refund",
      "type": "event"
    },
    {
      "constant": false,
      "inputs": [],
      "name": "buyTicket",
      "outputs": [],
      "payable": true,
      "stateMutability": "payable",
      "type": "function"
    },
    {
      "constant": false,
      "inputs": [
        {
          "name": "newquota",
          "type": "uint256"
        }
      ],
      "name": "changeQuota",
      "outputs": [],
      "payable": false,
      "stateMutability": "nonpayable",
      "type": "function"
    },
    {
      "constant": false,
      "inputs": [
        {
          "name": "recipient",
          "type": "address"
        },
        {
          "name": "amount",
          "type": "uint256"
        }
      ],
      "name": "refundTicket",
      "outputs": [],
      "payable": false,
      "stateMutability": "nonpayable",
      "type": "function"
    },
    {
      "constant": false,
      "inputs": [],
      "name": "destroy",
      "outputs": [],
      "payable": false,
      "stateMutability": "nonpayable",
      "type": "function"
    }
  ],
  "bytecode": "0x608060405234801561001057600080fd5b50336000806101000a81548173ffffffffffffffffffffffffffffffffffffffff021916908373ffffffffffffffffffffffffffffffffffffffff1602179055506101f46003819055506000600281905550610655806100716000396000f3fe60806040526004361061008e576000357c0100000000000000000000000000000000000000000000000000000000900463ffffffff16806313381fbf1461009357806361203265146100f8578063705099b91461014f57806383197ef0146101aa578063a977c71e146101c1578063cebe09c9146101fc578063ec3a6f7314610227578063edca914c14610252575b600080fd5b34801561009f57600080fd5b506100e2600480360360208110156100b657600080fd5b81019080803573ffffffffffffffffffffffffffffffffffffffff16906020019092919050505061025c565b6040518082815260200191505060405180910390f35b34801561010457600080fd5b5061010d610274565b604051808273ffffffffffffffffffffffffffffffffffffffff1673ffffffffffffffffffffffffffffffffffffffff16815260200191505060405180910390f35b34801561015b57600080fd5b506101a86004803603604081101561017257600080fd5b81019080803573ffffffffffffffffffffffffffffffffffffffff16906020019092919080359060200190929190505050610299565b005b3480156101b657600080fd5b506101bf610472565b005b3480156101cd57600080fd5b506101fa600480360360208110156101e457600080fd5b81019080803590602001909291905050506104e2565b005b34801561020857600080fd5b50610211610548565b6040518082815260200191505060405180910390f35b34801561023357600080fd5b5061023c61054e565b6040518082815260200191505060405180910390f35b61025a610554565b005b60016020528060005260406000206000915090505481565b6000809054906101000a900473ffffffffffffffffffffffffffffffffffffffff1681565b6000809054906101000a900473ffffffffffffffffffffffffffffffffffffffff1673ffffffffffffffffffffffffffffffffffffffff163373ffffffffffffffffffffffffffffffffffffffff161415156102f45761046e565b80600160008473ffffffffffffffffffffffffffffffffffffffff1673ffffffffffffffffffffffffffffffffffffffff16815260200190815260200160002054141561046d576000309050818173ffffffffffffffffffffffffffffffffffffffff163110151561046b578273ffffffffffffffffffffffffffffffffffffffff166108fc839081150290604051600060405180830381858888f193505050501580156103a6573d6000803e3d6000fd5b507fbb28353e4598c3b9199101a66e0989549b659a59a54d2c27fbb183f1932c8e6d8383604051808373ffffffffffffffffffffffffffffffffffffffff1673ffffffffffffffffffffffffffffffffffffffff1681526020018281526020019250505060405180910390a16000600160008573ffffffffffffffffffffffffffffffffffffffff1673ffffffffffffffffffffffffffffffffffffffff16815260200190815260200160002081905550600260008154809291906001900391905055505b505b5b5050565b6000809054906101000a900473ffffffffffffffffffffffffffffffffffffffff1673ffffffffffffffffffffffffffffffffffffffff163373ffffffffffffffffffffffffffffffffffffffff1614156104e0573373ffffffffffffffffffffffffffffffffffffffff16ff5b565b6000809054906101000a900473ffffffffffffffffffffffffffffffffffffffff1673ffffffffffffffffffffffffffffffffffffffff163373ffffffffffffffffffffffffffffffffffffffff1614151561053d57610545565b806003819055505b50565b60035481565b60025481565b60035460025410151561056657600080fd5b34600160003373ffffffffffffffffffffffffffffffffffffffff1673ffffffffffffffffffffffffffffffffffffffff168152602001908152602001600020819055506002600081548092919060010191905055507fe1fffcc4923d04b559f4d29a8bfc6cda04eb5b0d3c460751c2402c5c5cc9109c3334604051808373ffffffffffffffffffffffffffffffffffffffff1673ffffffffffffffffffffffffffffffffffffffff1681526020018281526020019250505060405180910390a156fea165627a7a723058204ed2a433cbccd15b141c024cd5bc8008d4118ad56b1442c54baf76315977319a0029",
  "source": "pragma solidity >=0.4.21 <0.6.0;\r\n\r\ncontract Conference {  // can be killed, so the owner gets sent the money in the end\r\n    //storage 这些变量永久存储在区块链中，而函数中声明的变量随着运行结束会被释放\r\n    address public organizer;\r\n    mapping (address => uint) public registrantsPaid;\r\n    uint public numRegistrants;\r\n    uint public quota;\r\n\r\n    event Deposit(address _from, uint _amount); // so you can log the event\r\n    event Refund(address _to, uint _amount); // so you can log the event\r\n\r\n    constructor() public {\r\n        organizer = msg.sender;\r\n        quota = 500;\r\n        numRegistrants = 0;\r\n    }\r\n\r\n    function buyTicket() payable public {\r\n        if (numRegistrants >= quota) {\r\n            revert(); // throw ensures funds will be returned\r\n        }\r\n        registrantsPaid[msg.sender] = msg.value;\r\n        numRegistrants++;\r\n        emit Deposit(msg.sender, msg.value);    //需要emit触发事件\r\n    }\r\n\r\n    function changeQuota(uint newquota) public {\r\n        if (msg.sender != organizer) { return; }\r\n        quota = newquota;\r\n    }\r\n\r\n    function refundTicket(address payable recipient, uint amount) public {\r\n        if (msg.sender != organizer) { return; }\r\n        if (registrantsPaid[recipient] == amount) {\r\n            address myAddress = address(this);  //使用显式转换\r\n            if (myAddress.balance >= amount) {\r\n                recipient.transfer(amount); //调用transfer需要声明memory如下：address payable recipient\r\n                emit Refund(recipient, amount);\r\n                registrantsPaid[recipient] = 0;\r\n                numRegistrants--;\r\n            }\r\n        }\r\n        return;\r\n    }\r\n\r\n    function destroy() public{\r\n        if (msg.sender == organizer) { // without this funds could be locked in the contract forever!\r\n            selfdestruct(msg.sender);\r\n        }\r\n    }\r\n}\r\n",
  "sourcePath": "G:/ethereum-dev/myproject/contracts/Conference.sol",
  "compiler": {
    "name": "solc",
    "version": "0.5.0+commit.1d4f565a.Emscripten.clang"
  },
  "schemaVersion": "3.0.2",
  "updatedAt": "2019-02-21T10:17:40.894Z",
  "devdoc": {
    "methods": {}
  },
  "userdoc": {
    "methods": {}
  }
}