{
  "contractName": "First",
  "abi": [
    {
      "constant": false,
      "inputs": [],
      "name": "show",
      "outputs": [
        {
          "name": "",
          "type": "string"
        }
      ],
      "payable": false,
      "stateMutability": "nonpayable",
      "type": "function",
      "signature": "0xcc80f6f3"
    },
    {
      "constant": true,
      "inputs": [
        {
          "name": "a",
          "type": "int256"
        },
        {
          "name": "b",
          "type": "int256"
        }
      ],
      "name": "plus",
      "outputs": [
        {
          "name": "",
          "type": "int256"
        }
      ],
      "payable": false,
      "stateMutability": "pure",
      "type": "function",
      "signature": "0xccf65503"
    }
  ],
  "bytecode": "0x608060405234801561001057600080fd5b506101b0806100206000396000f3fe60806040526004361061004c576000357c0100000000000000000000000000000000000000000000000000000000900463ffffffff168063cc80f6f314610051578063ccf65503146100e1575b600080fd5b34801561005d57600080fd5b5061006661013a565b6040518080602001828103825283818151815260200191508051906020019080838360005b838110156100a657808201518184015260208101905061008b565b50505050905090810190601f1680156100d35780820380516001836020036101000a031916815260200191505b509250505060405180910390f35b3480156100ed57600080fd5b506101246004803603604081101561010457600080fd5b810190808035906020019092919080359060200190929190505050610177565b6040518082815260200191505060405180910390f35b60606040805190810160405280600c81526020017f48656c6c6f20576f726c64210000000000000000000000000000000000000000815250905090565b600081830190509291505056fea165627a7a72305820ae5dc790f7c625b078d41331eed80071d5d8c6cec93677843b1519e1503618730029",
  "source": "pragma solidity >=0.4.21 <0.6.0;\r\n\r\ncontract First{\r\n    function show() public returns (string memory) {\r\n        return (\"Hello World!\");\r\n      }\r\n\r\n    function plus(int a,int b) public pure returns (int) {\r\n        return a + b;\r\n    }\r\n}",
  "sourcePath": "G:/ethereum-dev/myproject/contracts/First.sol",
  "compiler": {
    "name": "solc",
    "version": "0.5.0+commit.1d4f565a.Emscripten.clang"
  },
  "schemaVersion": "3.0.2",
  "updatedAt": "2019-02-21T07:43:39.738Z",
  "devdoc": {
    "methods": {}
  },
  "userdoc": {
    "methods": {}
  }
}