{
  "contractName": "Main",
  "abi": [
    {
      "constant": true,
      "inputs": [],
      "name": "nodeNumber",
      "outputs": [
        {
          "name": "",
          "type": "uint256"
        }
      ],
      "payable": false,
      "stateMutability": "view",
      "type": "function"
    },
    {
      "constant": true,
      "inputs": [],
      "name": "organizer",
      "outputs": [
        {
          "name": "",
          "type": "address"
        }
      ],
      "payable": false,
      "stateMutability": "view",
      "type": "function"
    },
    {
      "constant": true,
      "inputs": [
        {
          "name": "",
          "type": "uint256"
        }
      ],
      "name": "Nodes",
      "outputs": [
        {
          "name": "addr",
          "type": "address"
        },
        {
          "name": "ability",
          "type": "uint256"
        },
        {
          "name": "available",
          "type": "bool"
        }
      ],
      "payable": false,
      "stateMutability": "view",
      "type": "function"
    },
    {
      "inputs": [],
      "payable": false,
      "stateMutability": "nonpayable",
      "type": "constructor"
    },
    {
      "anonymous": false,
      "inputs": [
        {
          "indexed": false,
          "name": "x",
          "type": "uint256"
        }
      ],
      "name": "testTask",
      "type": "event"
    },
    {
      "anonymous": false,
      "inputs": [
        {
          "indexed": false,
          "name": "addr",
          "type": "address"
        },
        {
          "indexed": false,
          "name": "x",
          "type": "uint256[10]"
        },
        {
          "indexed": false,
          "name": "y",
          "type": "uint256[10]"
        }
      ],
      "name": "execMatrixMulitTask",
      "type": "event"
    },
    {
      "constant": true,
      "inputs": [
        {
          "name": "addr",
          "type": "address"
        }
      ],
      "name": "showNode",
      "outputs": [
        {
          "name": "",
          "type": "address"
        },
        {
          "name": "",
          "type": "uint256"
        },
        {
          "name": "",
          "type": "bool"
        }
      ],
      "payable": false,
      "stateMutability": "view",
      "type": "function"
    },
    {
      "constant": false,
      "inputs": [],
      "name": "connect",
      "outputs": [],
      "payable": false,
      "stateMutability": "nonpayable",
      "type": "function"
    },
    {
      "constant": false,
      "inputs": [
        {
          "name": "addr",
          "type": "address"
        }
      ],
      "name": "disconnect",
      "outputs": [],
      "payable": false,
      "stateMutability": "nonpayable",
      "type": "function"
    },
    {
      "constant": false,
      "inputs": [
        {
          "name": "ability",
          "type": "uint256"
        }
      ],
      "name": "setAbility",
      "outputs": [],
      "payable": false,
      "stateMutability": "nonpayable",
      "type": "function"
    }
  ],
  "bytecode": "0x608060405234801561001057600080fd5b50336000806101000a81548173ffffffffffffffffffffffffffffffffffffffff021916908373ffffffffffffffffffffffffffffffffffffffff16021790555060018081905550610a06806100676000396000f3fe608060405260043610610083576000357c0100000000000000000000000000000000000000000000000000000000900463ffffffff1680630a5644df14610088578063335e2e5e146100c357806361203265146100ee578063948cb71914610145578063a83733a41461015c578063cbf24339146101e9578063d76837d21461023a575b600080fd5b34801561009457600080fd5b506100c1600480360360208110156100ab57600080fd5b81019080803590602001909291905050506102dd565b005b3480156100cf57600080fd5b506100d86103a1565b6040518082815260200191505060405180910390f35b3480156100fa57600080fd5b506101036103a7565b604051808273ffffffffffffffffffffffffffffffffffffffff1673ffffffffffffffffffffffffffffffffffffffff16815260200191505060405180910390f35b34801561015157600080fd5b5061015a6103cc565b005b34801561016857600080fd5b506101956004803603602081101561017f57600080fd5b81019080803590602001909291905050506105d3565b604051808473ffffffffffffffffffffffffffffffffffffffff1673ffffffffffffffffffffffffffffffffffffffff16815260200183815260200182151515158152602001935050505060405180910390f35b3480156101f557600080fd5b506102386004803603602081101561020c57600080fd5b81019080803573ffffffffffffffffffffffffffffffffffffffff169060200190929190505050610639565b005b34801561024657600080fd5b506102896004803603602081101561025d57600080fd5b81019080803573ffffffffffffffffffffffffffffffffffffffff16906020019092919050505061082b565b604051808473ffffffffffffffffffffffffffffffffffffffff1673ffffffffffffffffffffffffffffffffffffffff16815260200183815260200182151515158152602001935050505060405180910390f35b6000600280549050905060008090505b8181101561039c573373ffffffffffffffffffffffffffffffffffffffff1660028281548110151561031b57fe5b906000526020600020906003020160000160009054906101000a900473ffffffffffffffffffffffffffffffffffffffff1673ffffffffffffffffffffffffffffffffffffffff16141561038f578260028281548110151561037957fe5b9060005260206000209060030201600101819055505b80806001019150506102ed565b505050565b60015481565b6000809054906101000a900473ffffffffffffffffffffffffffffffffffffffff1681565b6103d46109a0565b6060604051908101604052803373ffffffffffffffffffffffffffffffffffffffff168152602001600081526020016001151581525090506000600280549050905060008090505b818110156104e6573373ffffffffffffffffffffffffffffffffffffffff1660028281548110151561044a57fe5b906000526020600020906003020160000160009054906101000a900473ffffffffffffffffffffffffffffffffffffffff1673ffffffffffffffffffffffffffffffffffffffff1614156104d9577f9194eed7165761c46b8c66357c8c0b6e3370119dfd62bedd4311ae4c05575a5761270f6040518082815260200191505060405180910390a15050506105d1565b808060010191505061041c565b506002829080600181540180825580915050906001820390600052602060002090600302016000909192909190915060008201518160000160006101000a81548173ffffffffffffffffffffffffffffffffffffffff021916908373ffffffffffffffffffffffffffffffffffffffff1602179055506020820151816001015560408201518160020160006101000a81548160ff0219169083151502179055505050506002805490506001819055507f9194eed7165761c46b8c66357c8c0b6e3370119dfd62bedd4311ae4c05575a576127106040518082815260200191505060405180910390a150505b565b6002818154811015156105e257fe5b90600052602060002090600302016000915090508060000160009054906101000a900473ffffffffffffffffffffffffffffffffffffffff16908060010154908060020160009054906101000a900460ff16905083565b6000600280549050905060008090505b8181101561081a578273ffffffffffffffffffffffffffffffffffffffff1660028281548110151561067757fe5b906000526020600020906003020160000160009054906101000a900473ffffffffffffffffffffffffffffffffffffffff1673ffffffffffffffffffffffffffffffffffffffff16141561080d576002600183038154811015156106d757fe5b90600052602060002090600302016002828154811015156106f457fe5b90600052602060002090600302016000820160009054906101000a900473ffffffffffffffffffffffffffffffffffffffff168160000160006101000a81548173ffffffffffffffffffffffffffffffffffffffff021916908373ffffffffffffffffffffffffffffffffffffffff160217905550600182015481600101556002820160009054906101000a900460ff168160020160006101000a81548160ff021916908315150217905550905050600280548015156107b057fe5b6001900381819060005260206000209060030201600080820160006101000a81549073ffffffffffffffffffffffffffffffffffffffff021916905560018201600090556002820160006101000a81549060ff0219169055505090555b8080600101915050610649565b506002805490506001819055505050565b600080600080600280549050905060008090506108466109a0565b60008090505b83811015610980578773ffffffffffffffffffffffffffffffffffffffff1660028281548110151561087a57fe5b906000526020600020906003020160000160009054906101000a900473ffffffffffffffffffffffffffffffffffffffff1673ffffffffffffffffffffffffffffffffffffffff161415610973576002818154811015156108d757fe5b9060005260206000209060030201606060405190810160405290816000820160009054906101000a900473ffffffffffffffffffffffffffffffffffffffff1673ffffffffffffffffffffffffffffffffffffffff1673ffffffffffffffffffffffffffffffffffffffff168152602001600182015481526020016002820160009054906101000a900460ff1615151515815250509150600192505b808060010191505061084c565b508060000151816020015182604001519550955095505050509193909250565b606060405190810160405280600073ffffffffffffffffffffffffffffffffffffffff16815260200160008152602001600015158152509056fea165627a7a7230582047c065c9fbc53abca5d2cb1c1462e5cc30ab6c31a1616eda0542a702dca2fa430029",
  "source": "pragma solidity ^0.5.0;\r\n\r\nimport \"./Algorithm.sol\";\r\n\r\ncontract Main {\r\n    address public organizer;\r\n    uint public nodeNumber; //当前可用节点数\r\n    struct Participant {\r\n        address addr;\r\n        uint ability;   //算力\r\n        bool available; //当前是否可用, 值:true——当前可用(已经处理完了工作), false——当前不可用\r\n    }\r\n    Participant[] public Nodes;\r\n    event testTask(uint x);   //计算x个元素的快速排序消耗的时间\r\n    event execMatrixMulitTask(address addr, uint[10] x, uint[10] y);    //10*10矩阵乘法\r\n\r\n    constructor() public {\r\n        organizer = msg.sender;\r\n        nodeNumber = 1;\r\n    }\r\n\r\n    function taskManager() private{\r\n\r\n    }\r\n\r\n    function showNode(address addr) public view returns(address, uint, bool){\r\n        uint length = Nodes.length;\r\n        bool flag = false;\r\n        Participant memory node;\r\n        for(uint i = 0; i < length; i++){\r\n            if(Nodes[i].addr == addr){\r\n                node = Nodes[i];\r\n                flag = true;\r\n            }\r\n        }\r\n        return (node.addr, node.ability, node.available);\r\n    }\r\n\r\n    function connect() public{   // solidity不支持返回结构体数组和结构体\r\n        Participant memory _participant = Participant(msg.sender, 0, true);\r\n        uint length = Nodes.length;\r\n        for(uint i = 0; i < length; i++){\r\n            if(Nodes[i].addr == msg.sender){\r\n                emit testTask(9999);\r\n                return;\r\n            }\r\n        }\r\n        Nodes.push(_participant);\r\n        nodeNumber = Nodes.length;\r\n        //发射事件测试算力\r\n        emit testTask(10000);\r\n    }\r\n\r\n    function disconnect(address addr) public{\r\n        uint length = Nodes.length;\r\n        for(uint i = 0; i < length; i++){\r\n            if(Nodes[i].addr == addr){\r\n                Nodes[i] = Nodes[length-1];\r\n                Nodes.pop();\r\n            }\r\n        }\r\n        nodeNumber = Nodes.length;\r\n    }\r\n\r\n    function setAbility(uint ability) public{\r\n        uint length = Nodes.length;\r\n        for(uint i = 0; i < length; i++){\r\n            if(Nodes[i].addr == msg.sender){\r\n                Nodes[i].ability = ability;\r\n            }\r\n        }\r\n    }\r\n\r\n}",
  "sourcePath": "G:/ethereum-dev/myproject/contracts/Main.sol",
  "compiler": {
    "name": "solc",
    "version": "0.5.0+commit.1d4f565a.Emscripten.clang"
  },
  "schemaVersion": "3.0.2",
  "updatedAt": "2019-03-01T15:36:15.643Z",
  "devdoc": {
    "methods": {}
  },
  "userdoc": {
    "methods": {}
  }
}