{
  "contractName": "Main",
  "abi": [
    {
      "constant": true,
      "inputs": [],
      "name": "nodeNumber",
      "outputs": [
        {
          "name": "",
          "type": "uint256"
        }
      ],
      "payable": false,
      "stateMutability": "view",
      "type": "function"
    },
    {
      "constant": true,
      "inputs": [],
      "name": "organizer",
      "outputs": [
        {
          "name": "",
          "type": "address"
        }
      ],
      "payable": false,
      "stateMutability": "view",
      "type": "function"
    },
    {
      "inputs": [],
      "payable": false,
      "stateMutability": "nonpayable",
      "type": "constructor"
    },
    {
      "constant": false,
      "inputs": [],
      "name": "join",
      "outputs": [
        {
          "name": "",
          "type": "bool"
        }
      ],
      "payable": false,
      "stateMutability": "nonpayable",
      "type": "function"
    },
    {
      "constant": false,
      "inputs": [
        {
          "name": "addr",
          "type": "address"
        }
      ],
      "name": "quit",
      "outputs": [
        {
          "name": "",
          "type": "bool"
        }
      ],
      "payable": false,
      "stateMutability": "nonpayable",
      "type": "function"
    }
  ],
  "bytecode": "0x608060405234801561001057600080fd5b50336000806101000a81548173ffffffffffffffffffffffffffffffffffffffff021916908373ffffffffffffffffffffffffffffffffffffffff16021790555060018081905550610060610140565b6060604051908101604052803373ffffffffffffffffffffffffffffffffffffffff168152602001600081526020016001151581525090506002819080600181540180825580915050906001820390600052602060002090600302016000909192909190915060008201518160000160006101000a81548173ffffffffffffffffffffffffffffffffffffffff021916908373ffffffffffffffffffffffffffffffffffffffff1602179055506020820151816001015560408201518160020160006101000a81548160ff0219169083151502179055505050505061017a565b606060405190810160405280600073ffffffffffffffffffffffffffffffffffffffff168152602001600081526020016000151581525090565b6104a2806101896000396000f3fe608060405260043610610062576000357c0100000000000000000000000000000000000000000000000000000000900463ffffffff168063335e2e5e146100675780636120326514610092578063b688a363146100e9578063d32b91dd14610118575b600080fd5b34801561007357600080fd5b5061007c610181565b6040518082815260200191505060405180910390f35b34801561009e57600080fd5b506100a7610187565b604051808273ffffffffffffffffffffffffffffffffffffffff1673ffffffffffffffffffffffffffffffffffffffff16815260200191505060405180910390f35b3480156100f557600080fd5b506100fe6101ac565b604051808215151515815260200191505060405180910390f35b34801561012457600080fd5b506101676004803603602081101561013b57600080fd5b81019080803573ffffffffffffffffffffffffffffffffffffffff16906020019092919050505061035d565b604051808215151515815260200191505060405180910390f35b60015481565b6000809054906101000a900473ffffffffffffffffffffffffffffffffffffffff1681565b60008060009054906101000a900473ffffffffffffffffffffffffffffffffffffffff1673ffffffffffffffffffffffffffffffffffffffff163373ffffffffffffffffffffffffffffffffffffffff1614151515610273576040517f08c379a00000000000000000000000000000000000000000000000000000000081526004018080602001828103825260168152602001807f6f7267616e697a65722063616e6e6f74206a6f696e210000000000000000000081525060200191505060405180910390fd5b61027b61043c565b6060604051908101604052803373ffffffffffffffffffffffffffffffffffffffff168152602001600081526020016001151581525090506002819080600181540180825580915050906001820390600052602060002090600302016000909192909190915060008201518160000160006101000a81548173ffffffffffffffffffffffffffffffffffffffff021916908373ffffffffffffffffffffffffffffffffffffffff1602179055506020820151816001015560408201518160020160006101000a81548160ff021916908315150217905550505050600191505090565b600080600280549050905060008090505b81811015610431578373ffffffffffffffffffffffffffffffffffffffff1660028281548110151561039c57fe5b906000526020600020906003020160000160009054906101000a900473ffffffffffffffffffffffffffffffffffffffff1673ffffffffffffffffffffffffffffffffffffffff1614156104245760006002828154811015156103fb57fe5b906000526020600020906003020160020160006101000a81548160ff0219169083151502179055505b808060010191505061036e565b506001915050919050565b606060405190810160405280600073ffffffffffffffffffffffffffffffffffffffff16815260200160008152602001600015158152509056fea165627a7a723058203915854156d4574ed48fece17cb21c1f92c7decd66dbf46686a56d64d52504dc0029",
  "source": "pragma solidity ^0.5.0;\r\n\r\nimport \"./Algorithm.sol\";\r\n\r\ncontract Main {\r\n    address public organizer;\r\n    uint public nodeNumber;\r\n    struct Participant {\r\n        address addr;\r\n        uint ability;   //算力\r\n        bool available; //当前是否可用, 值:true——当前可用, false——当前不可用\r\n    }\r\n    Participant[] Nodes;\r\n\r\n    constructor() public {\r\n        organizer = msg.sender;\r\n        nodeNumber = 1;\r\n        Participant memory _participant = Participant(msg.sender, 0, true);\r\n        Nodes.push(_participant);\r\n    }\r\n\r\n    function join() public returns(bool){   // solidity不支持返回结构体数组和结构体\r\n        require(msg.sender != organizer, \"organizer cannot join!\");\r\n        Participant memory _participant = Participant(msg.sender, 0, true);\r\n        Nodes.push(_participant);\r\n        return true;\r\n    }\r\n\r\n    function quit(address addr) public returns(bool){\r\n        uint length = Nodes.length;\r\n        for(uint i = 0; i < length; i++){\r\n            if(Nodes[i].addr == addr){\r\n                Nodes[i].available = false;\r\n            }\r\n        }\r\n        return true;\r\n    }\r\n\r\n}",
  "sourcePath": "G:/ethereum-dev/myproject/contracts/Main.sol",
  "compiler": {
    "name": "solc",
    "version": "0.5.0+commit.1d4f565a.Emscripten.clang"
  },
  "schemaVersion": "3.0.2",
  "updatedAt": "2019-02-27T08:37:31.493Z",
  "devdoc": {
    "methods": {}
  },
  "userdoc": {
    "methods": {}
  }
}