{
  "contractName": "Main",
  "abi": [
    {
      "constant": true,
      "inputs": [],
      "name": "successTaskNumber",
      "outputs": [
        {
          "name": "",
          "type": "uint256"
        }
      ],
      "payable": false,
      "stateMutability": "view",
      "type": "function"
    },
    {
      "constant": true,
      "inputs": [],
      "name": "nodeNumber",
      "outputs": [
        {
          "name": "",
          "type": "uint256"
        }
      ],
      "payable": false,
      "stateMutability": "view",
      "type": "function"
    },
    {
      "constant": true,
      "inputs": [],
      "name": "nowTaskNode",
      "outputs": [
        {
          "name": "",
          "type": "uint256"
        }
      ],
      "payable": false,
      "stateMutability": "view",
      "type": "function"
    },
    {
      "constant": true,
      "inputs": [],
      "name": "finalMatrixSum",
      "outputs": [
        {
          "name": "",
          "type": "uint256"
        }
      ],
      "payable": false,
      "stateMutability": "view",
      "type": "function"
    },
    {
      "constant": true,
      "inputs": [],
      "name": "totalTaskNumber",
      "outputs": [
        {
          "name": "",
          "type": "uint256"
        }
      ],
      "payable": false,
      "stateMutability": "view",
      "type": "function"
    },
    {
      "constant": true,
      "inputs": [],
      "name": "matrixLength",
      "outputs": [
        {
          "name": "",
          "type": "uint256"
        }
      ],
      "payable": false,
      "stateMutability": "view",
      "type": "function"
    },
    {
      "constant": true,
      "inputs": [
        {
          "name": "",
          "type": "uint256"
        }
      ],
      "name": "Nodes",
      "outputs": [
        {
          "name": "addr",
          "type": "address"
        },
        {
          "name": "ability",
          "type": "uint256"
        },
        {
          "name": "available",
          "type": "bool"
        }
      ],
      "payable": false,
      "stateMutability": "view",
      "type": "function"
    },
    {
      "inputs": [],
      "payable": false,
      "stateMutability": "nonpayable",
      "type": "constructor"
    },
    {
      "anonymous": false,
      "inputs": [
        {
          "indexed": false,
          "name": "x",
          "type": "uint256"
        }
      ],
      "name": "testTask",
      "type": "event"
    },
    {
      "constant": false,
      "inputs": [],
      "name": "init",
      "outputs": [],
      "payable": false,
      "stateMutability": "nonpayable",
      "type": "function"
    },
    {
      "constant": false,
      "inputs": [],
      "name": "no_distribute_manager",
      "outputs": [
        {
          "name": "",
          "type": "uint256"
        }
      ],
      "payable": false,
      "stateMutability": "nonpayable",
      "type": "function"
    },
    {
      "constant": false,
      "inputs": [],
      "name": "direct_distribute_manager",
      "outputs": [
        {
          "name": "",
          "type": "uint256"
        }
      ],
      "payable": false,
      "stateMutability": "nonpayable",
      "type": "function"
    },
    {
      "constant": false,
      "inputs": [],
      "name": "loop_distribute_manager",
      "outputs": [
        {
          "name": "",
          "type": "uint256"
        }
      ],
      "payable": false,
      "stateMutability": "nonpayable",
      "type": "function"
    },
    {
      "constant": false,
      "inputs": [
        {
          "name": "addr",
          "type": "address"
        },
        {
          "name": "flag",
          "type": "bool"
        }
      ],
      "name": "setAvailableByAddr",
      "outputs": [],
      "payable": false,
      "stateMutability": "nonpayable",
      "type": "function"
    },
    {
      "constant": false,
      "inputs": [],
      "name": "taskFinished",
      "outputs": [],
      "payable": false,
      "stateMutability": "nonpayable",
      "type": "function"
    },
    {
      "constant": false,
      "inputs": [
        {
          "name": "flag",
          "type": "bool"
        }
      ],
      "name": "better_cnp_manager",
      "outputs": [
        {
          "name": "",
          "type": "uint256"
        }
      ],
      "payable": false,
      "stateMutability": "nonpayable",
      "type": "function"
    },
    {
      "constant": false,
      "inputs": [
        {
          "name": "flag",
          "type": "bool"
        }
      ],
      "name": "cnp_distribute",
      "outputs": [
        {
          "name": "",
          "type": "uint256"
        }
      ],
      "payable": false,
      "stateMutability": "nonpayable",
      "type": "function"
    },
    {
      "constant": false,
      "inputs": [],
      "name": "direct_distribute_without_testTask_manager",
      "outputs": [
        {
          "name": "",
          "type": "uint256"
        }
      ],
      "payable": false,
      "stateMutability": "nonpayable",
      "type": "function"
    },
    {
      "constant": false,
      "inputs": [],
      "name": "loop_distribute_without_testTask_manager",
      "outputs": [
        {
          "name": "",
          "type": "uint256"
        }
      ],
      "payable": false,
      "stateMutability": "nonpayable",
      "type": "function"
    },
    {
      "constant": false,
      "inputs": [
        {
          "name": "totalTaskNum",
          "type": "uint256"
        }
      ],
      "name": "direct_distribute",
      "outputs": [
        {
          "name": "",
          "type": "uint256[]"
        }
      ],
      "payable": false,
      "stateMutability": "nonpayable",
      "type": "function"
    },
    {
      "constant": true,
      "inputs": [
        {
          "name": "task_remained",
          "type": "uint256"
        }
      ],
      "name": "loop_distribute",
      "outputs": [
        {
          "name": "",
          "type": "uint256[]"
        }
      ],
      "payable": false,
      "stateMutability": "view",
      "type": "function"
    },
    {
      "constant": true,
      "inputs": [
        {
          "name": "totalTaskNum",
          "type": "uint256"
        }
      ],
      "name": "direct_distribute_without_testTask",
      "outputs": [
        {
          "name": "",
          "type": "uint256[]"
        }
      ],
      "payable": false,
      "stateMutability": "view",
      "type": "function"
    },
    {
      "constant": true,
      "inputs": [],
      "name": "getAbility",
      "outputs": [
        {
          "name": "",
          "type": "uint256[]"
        }
      ],
      "payable": false,
      "stateMutability": "view",
      "type": "function"
    },
    {
      "constant": true,
      "inputs": [
        {
          "name": "addr",
          "type": "address"
        }
      ],
      "name": "showNode",
      "outputs": [
        {
          "name": "",
          "type": "address"
        },
        {
          "name": "",
          "type": "uint256"
        },
        {
          "name": "",
          "type": "bool"
        }
      ],
      "payable": false,
      "stateMutability": "view",
      "type": "function"
    },
    {
      "constant": false,
      "inputs": [],
      "name": "connect",
      "outputs": [
        {
          "name": "",
          "type": "uint256"
        }
      ],
      "payable": false,
      "stateMutability": "nonpayable",
      "type": "function"
    },
    {
      "constant": false,
      "inputs": [
        {
          "name": "addr",
          "type": "address"
        }
      ],
      "name": "disconnect",
      "outputs": [],
      "payable": false,
      "stateMutability": "nonpayable",
      "type": "function"
    },
    {
      "constant": false,
      "inputs": [
        {
          "name": "ability",
          "type": "uint256"
        },
        {
          "name": "_manager_flag",
          "type": "bool"
        }
      ],
      "name": "setAbility",
      "outputs": [],
      "payable": false,
      "stateMutability": "nonpayable",
      "type": "function"
    },
    {
      "constant": false,
      "inputs": [],
      "name": "kill",
      "outputs": [],
      "payable": false,
      "stateMutability": "nonpayable",
      "type": "function"
    }
  ],
  "bytecode": "0x608060405234801561001057600080fd5b50336000806101000a81548173ffffffffffffffffffffffffffffffffffffffff021916908373ffffffffffffffffffffffffffffffffffffffff160217905550600180819055506014600581905550600a60055402600281905550600060038190555060006004819055506000600681905550612f1a806100936000396000f3fe608060405260043610610154576000357c0100000000000000000000000000000000000000000000000000000000900463ffffffff168063039d163914610159578063177d64d2146101a05780632a0f000f146101cb5780632a1805cf146101f6578063335e2e5e1461022157806333b8509f1461024c57806341c0e1b5146102dc5780634ee8abe5146102f35780635005f2561461031e578063550d40fe146103495780635f2e7b96146103745780637182264d1461039f5780637b7ebac6146103f057806382a903741461041b578063948cb719146104ab5780639653888b146104d6578063a503642c14610533578063a83733a41461055e578063b1f7748f146105eb578063b3a3701414610602578063cbf2433914610653578063cf733fbe146106a4578063d76837d2146106cf578063e1c7392a14610772578063e2d81e8c14610789578063ee73668814610819575b600080fd5b34801561016557600080fd5b5061019e6004803603604081101561017c57600080fd5b8101908080359060200190929190803515159060200190929190505050610885565b005b3480156101ac57600080fd5b506101b56109f7565b6040518082815260200191505060405180910390f35b3480156101d757600080fd5b506101e0610a60565b6040518082815260200191505060405180910390f35b34801561020257600080fd5b5061020b610a66565b6040518082815260200191505060405180910390f35b34801561022d57600080fd5b50610236610ae1565b6040518082815260200191505060405180910390f35b34801561025857600080fd5b506102856004803603602081101561026f57600080fd5b8101908080359060200190929190505050610ae7565b6040518080602001828103825283818151815260200191508051906020019060200280838360005b838110156102c85780820151818401526020810190506102ad565b505050509050019250505060405180910390f35b3480156102e857600080fd5b506102f1610ce7565b005b3480156102ff57600080fd5b50610308610d78565b6040518082815260200191505060405180910390f35b34801561032a57600080fd5b50610333610d7e565b6040518082815260200191505060405180910390f35b34801561035557600080fd5b5061035e610d84565b6040518082815260200191505060405180910390f35b34801561038057600080fd5b50610389610d8a565b6040518082815260200191505060405180910390f35b3480156103ab57600080fd5b506103da600480360360208110156103c257600080fd5b81019080803515159060200190929190505050610e1e565b6040518082815260200191505060405180910390f35b3480156103fc57600080fd5b50610405610f92565b6040518082815260200191505060405180910390f35b34801561042757600080fd5b506104546004803603602081101561043e57600080fd5b8101908080359060200190929190505050610f98565b6040518080602001828103825283818151815260200191508051906020019060200280838360005b8381101561049757808201518184015260208101905061047c565b505050509050019250505060405180910390f35b3480156104b757600080fd5b506104c061146a565b6040518082815260200191505060405180910390f35b3480156104e257600080fd5b50610531600480360360408110156104f957600080fd5b81019080803573ffffffffffffffffffffffffffffffffffffffff16906020019092919080351515906020019092919050505061160c565b005b34801561053f57600080fd5b506105486116e4565b6040518082815260200191505060405180910390f35b34801561056a57600080fd5b506105976004803603602081101561058157600080fd5b8101908080359060200190929190505050611776565b604051808473ffffffffffffffffffffffffffffffffffffffff1673ffffffffffffffffffffffffffffffffffffffff16815260200183815260200182151515158152602001935050505060405180910390f35b3480156105f757600080fd5b506106006117dc565b005b34801561060e57600080fd5b5061063d6004803603602081101561062557600080fd5b810190808035151590602001909291905050506117fd565b6040518082815260200191505060405180910390f35b34801561065f57600080fd5b506106a26004803603602081101561067657600080fd5b81019080803573ffffffffffffffffffffffffffffffffffffffff169060200190929190505050611862565b005b3480156106b057600080fd5b506106b9611a54565b6040518082815260200191505060405180910390f35b3480156106db57600080fd5b5061071e600480360360208110156106f257600080fd5b81019080803573ffffffffffffffffffffffffffffffffffffffff169060200190929190505050611abd565b604051808473ffffffffffffffffffffffffffffffffffffffff1673ffffffffffffffffffffffffffffffffffffffff16815260200183815260200182151515158152602001935050505060405180910390f35b34801561077e57600080fd5b50610787611c32565b005b34801561079557600080fd5b506107c2600480360360208110156107ac57600080fd5b8101908080359060200190929190505050611c4c565b6040518080602001828103825283818151815260200191508051906020019060200280838360005b838110156108055780820151818401526020810190506107ea565b505050509050019250505060405180910390f35b34801561082557600080fd5b5061082e611d6e565b6040518080602001828103825283818151815260200191508051906020019060200280838360005b83811015610871578082015181840152602081019050610856565b505050509050019250505060405180910390f35b6000600780549050905060008090505b81811015610944573373ffffffffffffffffffffffffffffffffffffffff166007828154811015156108c357fe5b906000526020600020906003020160000160009054906101000a900473ffffffffffffffffffffffffffffffffffffffff1673ffffffffffffffffffffffffffffffffffffffff161415610937578360078281548110151561092157fe5b9060005260206000209060030201600101819055505b8080600101915050610895565b5081156109f25760646007600281548110151561095d57fe5b90600052602060002090600302016001015481151561097857fe5b046007600281548110151561098957fe5b9060005260206000209060030201600101819055506064600760038154811015156109b057fe5b9060005260206000209060030201600101548115156109cb57fe5b04600760038154811015156109dc57fe5b9060005260206000209060030201600101819055505b505050565b60006060610a06600254610f98565b90506000610a148233611e0c565b90506000610a2482600554611ecd565b9050806004540160048190555081600354016003819055506002546003541415610a55576004549350505050610a5d565b600093505050505b90565b60035481565b600080600554905060006003546002540390505b600115610adb57600254600354101515610a9a5760045492505050610ade565b60035460025403905080821115610aaf578091505b6000610abd83600554611ecd565b90508260035401600381905550806004540160048190555050610a7a565b50505b90565b60015481565b606060006001549050606081604051908082528060200260200182016040528015610b215781602001602082028038833980820191505090505b5090506000809050600080905060008090505b84811015610bdc57600781815481101515610b4b57fe5b9060005260206000209060030201600101548482815181101515610b6b57fe5b90602001906020020181815250508381815181101515610b8757fe5b90602001906020020151830192508381815181101515610ba357fe5b906020019060200201518483815181101515610bbb57fe5b906020019060200201511015610bcf578091505b8080600101915050610b34565b5085821115610cdb57600084878403811515610bf457fe5b049050600080905060008090505b86811015610c58576000838783815181101515610c1b57fe5b906020019060200201510390508083019250808783815181101515610c3c57fe5b9060200190602002018181525050508080600101915050610c02565b508781101515610c9f578781038584815181101515610c7357fe5b90602001906020020151038584815181101515610c8c57fe5b9060200190602002018181525050610cd8565b8088038584815181101515610cb057fe5b90602001906020020151018584815181101515610cc957fe5b90602001906020020181815250505b50505b82945050505050919050565b3373ffffffffffffffffffffffffffffffffffffffff166000809054906101000a900473ffffffffffffffffffffffffffffffffffffffff1673ffffffffffffffffffffffffffffffffffffffff161415610d76576000809054906101000a900473ffffffffffffffffffffffffffffffffffffffff1673ffffffffffffffffffffffffffffffffffffffff16ff5b565b60065481565b60045481565b60025481565b60006060610d99600254610ae7565b90506000610da78233611e0c565b905060006003546002540390505b600115610e1757600254600354101515610dd6576004549350505050610e1b565b60035460025403905080821115610deb578091505b6000610df983600554611ecd565b90508260035401600381905550806004540160048190555050610db5565b5050505b90565b6000806001549050606081604051908082528060200260200182016040528015610e575781602001602082028038833980820191505090505b50905060006001905060008090505b83811015610eb657600781815481101515610e7d57fe5b906000526020600020906003020160020160009054906101000a900460ff1615610ea957809150610eb6565b8080600101915050610e66565b5060008090505b83811015610f7f57600781815481101515610ed457fe5b9060005260206000209060030201600101548382815181101515610ef457fe5b90602001906020020181815250508281815181101515610f1057fe5b906020019060200201518383815181101515610f2857fe5b90602001906020020151108015610f695750600781815481101515610f4957fe5b906000526020600020906003020160020160009054906101000a900460ff165b15610f72578091505b8080600101915050610ebd565b5080600681905550809350505050919050565b60055481565b60606000610fa46120a0565b604051809103906000f080158015610fc0573d6000803e3d6000fd5b50905060006001549050606081604051908082528060200260200182016040528015610ffb5781602001602082028038833980820191505090505b509050600080905060008090505b838110156110955760078181548110151561102057fe5b906000526020600020906003020160010154838281518110151561104057fe5b9060200190602002018181525050828181518110151561105c57fe5b90602001906020020151838381518110151561107457fe5b906020019060200201511015611088578091505b8080600101915050611009565b5060008473ffffffffffffffffffffffffffffffffffffffff166343334baa84866040518363ffffffff167c01000000000000000000000000000000000000000000000000000000000281526004018080602001838152602001828103825284818151815260200191508051906020019060200280838360005b8381101561112a57808201518184015260208101905061110f565b505050509050019350505050602060405180830381600087803b15801561115057600080fd5b505af1158015611164573d6000803e3d6000fd5b505050506040513d602081101561117a57600080fd5b81019080805190602001909291905050509050600080905060008090505b85811015611208578285828151811015156111af57fe5b906020019060200201518115156111c257fe5b0485828151811015156111d157fe5b906020019060200201818152505084818151811015156111ed57fe5b90602001906020020151820191508080600101915050611198565b506000809050888211151561136b5760008773ffffffffffffffffffffffffffffffffffffffff1663303b7f02848c6040518363ffffffff167c0100000000000000000000000000000000000000000000000000000000028152600401808381526020018281526020019250505060206040518083038186803b15801561128e57600080fd5b505afa1580156112a2573d6000803e3d6000fd5b505050506040513d60208110156112b857600080fd5b810190808051906020019092919050505090506000878483038115156112da57fe5b04905060008090505b888110156113635760008289838151811015156112fc57fe5b906020019060200201510190506000848e81151561131657fe5b0490508082028a8481518110151561132a57fe5b9060200190602002018181525050898381518110151561134657fe5b9060200190602002015186019550505080806001019150506112e3565b5050506113dc565b6000868a840381151561137a57fe5b04905060008090505b878110156113d957600082888381518110151561139c57fe5b9060200190602002015103905080840193508088838151811015156113bd57fe5b9060200190602002018181525050508080600101915050611383565b50505b88811015156114225788810385858151811015156113f657fe5b9060200190602002015103858581518110151561140f57fe5b906020019060200201818152505061145b565b808903858581518110151561143357fe5b9060200190602002015101858581518110151561144c57fe5b90602001906020020181815250505b84975050505050505050919050565b60006114746120b0565b6060604051908101604052803373ffffffffffffffffffffffffffffffffffffffff168152602001600081526020016000151581525090506000600780549050905060008090505b81811015611552573373ffffffffffffffffffffffffffffffffffffffff166007828154811015156114ea57fe5b906000526020600020906003020160000160009054906101000a900473ffffffffffffffffffffffffffffffffffffffff1673ffffffffffffffffffffffffffffffffffffffff161415611545576127109350505050611609565b80806001019150506114bc565b506007829080600181540180825580915050906001820390600052602060002090600302016000909192909190915060008201518160000160006101000a81548173ffffffffffffffffffffffffffffffffffffffff021916908373ffffffffffffffffffffffffffffffffffffffff1602179055506020820151816001015560408201518160020160006101000a81548160ff021916908315150217905550505050600780549050600181905550612710925050505b90565b6000600780549050905060008090505b818110156116de578373ffffffffffffffffffffffffffffffffffffffff1660078281548110151561164a57fe5b906000526020600020906003020160000160009054906101000a900473ffffffffffffffffffffffffffffffffffffffff1673ffffffffffffffffffffffffffffffffffffffff1614156116d157826007828154811015156116a857fe5b906000526020600020906003020160020160006101000a81548160ff0219169083151502179055505b808060010191505061161c565b50505050565b60008060009054906101000a900473ffffffffffffffffffffffffffffffffffffffff1673ffffffffffffffffffffffffffffffffffffffff163373ffffffffffffffffffffffffffffffffffffffff1614151561174157600080fd5b60006002549050600061175682600554611ecd565b905080600454016004819055508160035401600381905550809250505090565b60078181548110151561178557fe5b90600052602060002090600302016000915090508060000160009054906101000a900473ffffffffffffffffffffffffffffffffffffffff16908060010154908060020160009054906101000a900460ff16905083565b60025460035410156117fb576003600081548092919060010191905055505b565b6000600254600354101515611815576000905061185d565b61182033600161160c565b600061182b83610e1e565b90508060068190555061183f33600061160c565b6002546003541015156118575760045491505061185d565b60009150505b919050565b6000600780549050905060008090505b81811015611a43578273ffffffffffffffffffffffffffffffffffffffff166007828154811015156118a057fe5b906000526020600020906003020160000160009054906101000a900473ffffffffffffffffffffffffffffffffffffffff1673ffffffffffffffffffffffffffffffffffffffff161415611a365760076001830381548110151561190057fe5b906000526020600020906003020160078281548110151561191d57fe5b90600052602060002090600302016000820160009054906101000a900473ffffffffffffffffffffffffffffffffffffffff168160000160006101000a81548173ffffffffffffffffffffffffffffffffffffffff021916908373ffffffffffffffffffffffffffffffffffffffff160217905550600182015481600101556002820160009054906101000a900460ff168160020160006101000a81548160ff021916908315150217905550905050600780548015156119d957fe5b6001900381819060005260206000209060030201600080820160006101000a81549073ffffffffffffffffffffffffffffffffffffffff021916905560018201600090556002820160006101000a81549060ff0219169055505090555b8080600101915050611872565b506007805490506001819055505050565b60006060611a63600254610f98565b90506000611a718233611e0c565b90506000611a8182600554611ecd565b9050806004540160048190555081600354016003819055506002546003541415611ab2576004549350505050611aba565b600093505050505b90565b60008060008060078054905090506000809050611ad86120b0565b60008090505b83811015611c12578773ffffffffffffffffffffffffffffffffffffffff16600782815481101515611b0c57fe5b906000526020600020906003020160000160009054906101000a900473ffffffffffffffffffffffffffffffffffffffff1673ffffffffffffffffffffffffffffffffffffffff161415611c0557600781815481101515611b6957fe5b9060005260206000209060030201606060405190810160405290816000820160009054906101000a900473ffffffffffffffffffffffffffffffffffffffff1673ffffffffffffffffffffffffffffffffffffffff1673ffffffffffffffffffffffffffffffffffffffff168152602001600182015481526020016002820160009054906101000a900460ff1615151515815250509150600192505b8080600101915050611ade565b508060000151816020015182604001519550955095505050509193909250565b600060038190555060006004819055506000600681905550565b606060006001549050606081604051908082528060200260200182016040528015611c865781602001602082028038833980820191505090505b50905060008285811515611c9657fe5b04905060008090505b83811015611cd157818382815181101515611cb657fe5b90602001906020020181815250508080600101915050611c9f565b506000838202905060025481111515611d25578060025403836000815181101515611cf857fe5b9060200190602002015101836000815181101515611d1257fe5b9060200190602002018181525050611d62565b6002548103836000815181101515611d3957fe5b9060200190602002015103836000815181101515611d5357fe5b90602001906020020181815250505b82945050505050919050565b606060006001549050606081604051908082528060200260200182016040528015611da85781602001602082028038833980820191505090505b50905060008090505b82811015611e0357600781815481101515611dc857fe5b9060005260206000209060030201600101548282815181101515611de857fe5b90602001906020020181815250508080600101915050611db1565b50809250505090565b600080600154905060008090505b81811015611ec4578373ffffffffffffffffffffffffffffffffffffffff16600782815481101515611e4857fe5b906000526020600020906003020160000160009054906101000a900473ffffffffffffffffffffffffffffffffffffffff1673ffffffffffffffffffffffffffffffffffffffff161415611eb7578481815181101515611ea457fe5b9060200190602002015192505050611ec7565b8080600101915050611e1a565b50505b92915050565b600080831415611ee0576000905061209a565b6000829050606081604051908082528060200260200182016040528015611f165781602001602082028038833980820191505090505b509050606082604051908082528060200260200182016040528015611f4a5781602001602082028038833980820191505090505b509050606086604051908082528060200260200182016040528015611f7e5781602001602082028038833980820191505090505b50905060008090505b84811015611fd85760018482815181101515611f9f57fe5b906020019060200201818152505060018382815181101515611fbd57fe5b90602001906020020181815250508080600101915050611f87565b50600080905060008090505b8881101561209057600080905060008090505b600a81101561205f5760008090505b600a81101561201c578080600101915050612006565b5081868281518110151561202c57fe5b90602001906020020151888381518110151561204457fe5b90602001906020020151020191508080600101915050611ff7565b50808301925080848381518110151561207457fe5b9060200190602002018181525050508080600101915050611fe4565b5080955050505050505b92915050565b604051610e04806120eb83390190565b606060405190810160405280600073ffffffffffffffffffffffffffffffffffffffff16815260200160008152602001600015158152509056fe608060405234801561001057600080fd5b50610de4806100206000396000f3fe60806040526004361061008e576000357c0100000000000000000000000000000000000000000000000000000000900463ffffffff168063045bade214610093578063303b7f02146100be5780633185824e1461011757806343334baa1461016e578063455405f7146102515780635ad78e8a146102a05780639cb9f96c146102ef578063e428fb8a14610466575b600080fd5b34801561009f57600080fd5b506100a861058a565b6040518082815260200191505060405180910390f35b3480156100ca57600080fd5b50610101600480360360408110156100e157600080fd5b8101908080359060200190929190803590602001909291905050506107e0565b6040518082815260200191505060405180910390f35b34801561012357600080fd5b5061012c610826565b604051808273ffffffffffffffffffffffffffffffffffffffff1673ffffffffffffffffffffffffffffffffffffffff16815260200191505060405180910390f35b34801561017a57600080fd5b5061023b6004803603604081101561019157600080fd5b81019080803590602001906401000000008111156101ae57600080fd5b8201836020820111156101c057600080fd5b803590602001918460208302840111640100000000831117156101e257600080fd5b919080806020026020016040519081016040528093929190818152602001838360200280828437600081840152601f19601f8201169050808301925050505050505091929192908035906020019092919050505061083d565b6040518082815260200191505060405180910390f35b34801561025d57600080fd5b5061028a6004803603602081101561027457600080fd5b8101908080359060200190929190505050610a6b565b6040518082815260200191505060405180910390f35b3480156102ac57600080fd5b506102d9600480360360208110156102c357600080fd5b8101908080359060200190929190505050610a8b565b6040518082815260200191505060405180910390f35b3480156102fb57600080fd5b506104506004803603606081101561031257600080fd5b810190808035906020019064010000000081111561032f57600080fd5b82018360208201111561034157600080fd5b8035906020019184602083028401116401000000008311171561036357600080fd5b919080806020026020016040519081016040528093929190818152602001838360200280828437600081840152601f19601f820116905080830192505050505050509192919290803590602001906401000000008111156103c357600080fd5b8201836020820111156103d557600080fd5b803590602001918460208302840111640100000000831117156103f757600080fd5b919080806020026020016040519081016040528093929190818152602001838360200280828437600081840152601f19601f82011690508083019250505050505050919291929080359060200190929190505050610ad2565b6040518082815260200191505060405180910390f35b34801561047257600080fd5b506105336004803603604081101561048957600080fd5b81019080803590602001906401000000008111156104a657600080fd5b8201836020820111156104b857600080fd5b803590602001918460208302840111640100000000831117156104da57600080fd5b919080806020026020016040519081016040528093929190818152602001838360200280828437600081840152601f19601f82011690508083019250505050505050919291929080359060200190929190505050610b49565b6040518080602001828103825283818151815260200191508051906020019060200280838360005b8381101561057657808201518184015260208101905061055b565b505050509050019250505060405180910390f35b6000610594610c31565b606060405190810160405280606060405190810160405280600160ff168152602001600260ff168152602001600360ff168152508152602001606060405190810160405280600160ff168152602001600260ff168152602001600360ff168152508152602001606060405190810160405280600160ff168152602001600260ff168152602001600360ff16815250815250905061062f610c31565b606060405190810160405280606060405190810160405280600160ff168152602001600260ff168152602001600360ff168152508152602001606060405190810160405280600160ff168152602001600260ff168152602001600360ff168152508152602001606060405190810160405280600160ff168152602001600260ff168152602001600360ff16815250815250905060006003905060008360006003811015156106d957fe5b6020020151506003905060006003905060008460006003811015156106fa57fe5b60200201515060039050600080905082841415806107185750818514155b1561072257600080fd5b60008090505b858110156107d25760008090505b838110156107c457600080905060008090505b868110156107b057898160038110151561075f57fe5b60200201518360038110151561077157fe5b60200201518b8560038110151561078457fe5b60200201518260038110151561079657fe5b60200201510260ff16820191508080600101915050610749565b508084019350508080600101915050610736565b508080600101915050610728565b508097505050505050505090565b6000808390505b828111151561081a57600081848115156107fd57fe5b06141561080d5780915050610820565b80806001019150506107e7565b50600090505b92915050565b600061083061058a565b5060003390508091505090565b600080610848610c60565b604051809103906000f080158015610864573d6000803e3d6000fd5b50905060018314156108915783600081518110151561087f57fe5b90602001906020020151915050610a65565b60008173ffffffffffffffffffffffffffffffffffffffff1663b9650dac8660008151811015156108be57fe5b906020019060200201518760018151811015156108d757fe5b906020019060200201516040518363ffffffff167c01000000000000000000000000000000000000000000000000000000000281526004018083815260200182815260200192505050602060405180830381600087803b15801561093a57600080fd5b505af115801561094e573d6000803e3d6000fd5b505050506040513d602081101561096457600080fd5b810190808051906020019092919050505090506000600290505b84811015610a5e578273ffffffffffffffffffffffffffffffffffffffff1663b9650dac8388848151811015156109b157fe5b906020019060200201516040518363ffffffff167c01000000000000000000000000000000000000000000000000000000000281526004018083815260200182815260200192505050602060405180830381600087803b158015610a1457600080fd5b505af1158015610a28573d6000803e3d6000fd5b505050506040513d6020811015610a3e57600080fd5b81019080805190602001909291905050509150808060010191505061097e565b5080925050505b92915050565b600080829050600a8082811515610a7e57fe5b0502905080915050919050565b600080600190506000831415610aa5576001915050610acd565b60008390505b6000811315610ac7578082029150808060019003915050610aab565b50809150505b919050565b60008082111515610ae257600080fd5b600080905060008090505b83811015610b3d5760008582815181101515610b0557fe5b906020019060200201518783815181101515610b1d57fe5b906020019060200201510290508083019250508080600101915050610aed565b50809150509392505050565b606060008090505b82811015610c275760008190505b83811015610c19578481815181101515610b7557fe5b906020019060200201518583815181101515610b8d57fe5b906020019060200201511115610c0c5760008583815181101515610bad57fe5b9060200190602002015190508582815181101515610bc757fe5b906020019060200201518684815181101515610bdf57fe5b9060200190602002018181525050808683815181101515610bfc57fe5b9060200190602002018181525050505b8080600101915050610b5f565b508080600101915050610b51565b5082905092915050565b610120604051908101604052806003905b610c4a610c70565b815260200190600190039081610c425790505090565b60405161012580610c9483390190565b60606040519081016040528060039060208202803883398082019150509050509056fe608060405234801561001057600080fd5b50610105806100206000396000f3fe608060405260043610603f576000357c0100000000000000000000000000000000000000000000000000000000900463ffffffff168063b9650dac146044575b600080fd5b348015604f57600080fd5b50608360048036036040811015606457600080fd5b8101908080359060200190929190803590602001909291905050506099565b6040518082815260200191505060405180910390f35b60008183101560af576000839050829350809250505b600082141560be5782905060d3565b60d082838581151560cb57fe5b066099565b90505b9291505056fea165627a7a723058207fe3d8ac1be82b244088c7cce0df8492177f6feab3a185f683691f847177a9800029a165627a7a723058202663ad6f6d3ce603b579fa3c41a5246b2b0998e24b66fc440a5adccb6d27a0c70029a165627a7a72305820dba6e3d31fcff72b82d6bffb391750e3cc073f36050f54a0bfac31442a6dab490029",
  "source": "pragma solidity ^0.5.0;\r\n\r\nimport './Algorithm.sol';\r\n//  \r\n//  \r\n//  \r\ncontract Main {\r\n    address payable organizer;      // \r\n    uint public nodeNumber;         // \r\n    uint public totalTaskNumber;    // \r\n    uint public successTaskNumber;  // \r\n    uint public finalMatrixSum;     // \r\n    uint public matrixLength;       // \r\n    uint public nowTaskNode;        //  successTaskNumber \r\n\r\n    struct Participant {\r\n        address addr;\r\n        uint ability;   // \r\n        bool available; // , :true(), false\r\n    }\r\n    Participant[] public Nodes; // \r\n    event testTask(uint x);     // x\r\n\r\n    constructor() public {\r\n        // \r\n        organizer = msg.sender;\r\n        nodeNumber = 1;\r\n        matrixLength = 20;  // \r\n        //  200\r\n        totalTaskNumber = matrixLength * 10;\r\n        successTaskNumber = 0;\r\n        finalMatrixSum = 0;\r\n        nowTaskNode = 0;\r\n    }\r\n\r\n    function init()\r\n    public{\r\n        successTaskNumber = 0;\r\n        finalMatrixSum = 0;\r\n        nowTaskNode = 0;\r\n    }\r\n\r\n    //  unitLoad -  \r\n    function matrixMulitexecWork(uint unitLoad, uint _matrixLength)\r\n    private\r\n    pure\r\n    returns(uint) {\r\n        //\r\n        if(unitLoad == 0){\r\n            return 0;\r\n        }\r\n        uint Length = _matrixLength;\r\n        uint[] memory x = new uint[](Length);\r\n        uint[] memory y = new uint[](Length);\r\n        uint[] memory result = new uint[](unitLoad);    // \r\n        for(uint i = 0; i < Length; i++){\r\n            x[i] = 1;\r\n            y[i] = 1;\r\n        }\r\n        uint sum = 0;\r\n        for(uint i = 0; i < unitLoad; i++){\r\n            //  i < Length\r\n            // \r\n            //  j < 10\r\n            uint r = 0;\r\n            //  10*10 \r\n            for(uint j = 0; j < 10; j++){\r\n                for(uint k = 0; k < 10; k++){\r\n\r\n                }\r\n                r = x[j]*y[j] + r;\r\n            }\r\n            sum = sum + r;\r\n            result[i] = r;\r\n        }\r\n        return sum;\r\n    }\r\n\r\n    /*\r\n        0 \r\n         organizer \r\n    */\r\n    function no_distribute_manager()\r\n    public\r\n    returns(uint){\r\n        require(msg.sender == organizer);\r\n        uint unitLoad = totalTaskNumber;\r\n        uint sum = matrixMulitexecWork(unitLoad, matrixLength);\r\n        //  finalMatrixSum\r\n        finalMatrixSum = finalMatrixSum + sum;\r\n        //  successTaskNumber\r\n        successTaskNumber = successTaskNumber + unitLoad;\r\n        return sum;\r\n    }\r\n\r\n    /*\r\n        \r\n        \r\n    */\r\n    function direct_distribute_manager()\r\n    public\r\n    returns(uint){\r\n        uint[] memory ability = direct_distribute(totalTaskNumber);\r\n        uint unitLoad = getLoadByAddress(ability, msg.sender);  // \r\n        uint sum = matrixMulitexecWork(unitLoad, matrixLength);\r\n        //  finalMatrixSum\r\n        finalMatrixSum = finalMatrixSum + sum;\r\n        //  successTaskNumber\r\n        successTaskNumber = successTaskNumber + unitLoad;\r\n        //\r\n        if(successTaskNumber == totalTaskNumber){\r\n            return finalMatrixSum;\r\n        }\r\n        //\r\n        return 0;\r\n    }\r\n\r\n    /*\r\n        \r\n        \r\n        \r\n    */\r\n    function loop_distribute_manager()\r\n    public\r\n    returns(uint){\r\n        uint[] memory ability = loop_distribute(totalTaskNumber);\r\n        uint unitLoad = getLoadByAddress(ability, msg.sender);\r\n        uint task_remained = totalTaskNumber - successTaskNumber;\r\n        while(true){\r\n            if(successTaskNumber >= totalTaskNumber){\r\n                return finalMatrixSum;\r\n            }\r\n            task_remained = totalTaskNumber - successTaskNumber;\r\n            if(unitLoad > task_remained){\r\n                unitLoad = task_remained;\r\n            }\r\n            //  successTaskNumber\r\n            uint sum = matrixMulitexecWork(unitLoad, matrixLength);\r\n            successTaskNumber = successTaskNumber + unitLoad;\r\n\r\n            //  finalMatrixSum\r\n            finalMatrixSum = finalMatrixSum + sum;\r\n        }\r\n    }\r\n\r\n\r\n    function setAvailableByAddr(address addr, bool flag)\r\n    public{\r\n        uint length = Nodes.length;\r\n        for(uint i = 0; i < length; i++){\r\n            if(Nodes[i].addr == addr){\r\n                Nodes[i].available = flag;\r\n            }\r\n        }\r\n    }\r\n\r\n    function taskFinished()\r\n    public{\r\n        if(successTaskNumber < totalTaskNumber){\r\n            successTaskNumber++;\r\n        }\r\n    }\r\n\r\n\r\n    // \r\n    function better_cnp_manager(bool flag)\r\n    public\r\n    returns(uint){\r\n        if(successTaskNumber >= totalTaskNumber){\r\n            return 0;\r\n        }\r\n        //  available  true\r\n        setAvailableByAddr(msg.sender, true);\r\n        // index\r\n        uint index = cnp_distribute(flag);\r\n        nowTaskNode = index;\r\n        //  available  false\r\n        setAvailableByAddr(msg.sender, false);\r\n\r\n        if(successTaskNumber >= totalTaskNumber){\r\n            return finalMatrixSum;\r\n        }\r\n\r\n        //  finalMatrixSum\r\n//        finalMatrixSum = finalMatrixSum + 10;\r\n\r\n        return 0;\r\n    }\r\n\r\n    // flag = ture => B\r\n    // flag = false => A\r\n    function cnp_distribute(bool flag)\r\n    public\r\n    returns(uint){\r\n        uint Length = nodeNumber;\r\n        uint[] memory ability = new uint[](Length);\r\n        uint maxIndex = 1;\r\n        for(uint k = 0; k < Length; k++){\r\n            if(Nodes[k].available){\r\n                maxIndex = k;\r\n                break;\r\n            }\r\n        }\r\n        for(uint i = 0; i < Length; i++){\r\n            ability[i] = Nodes[i].ability;\r\n            if(ability[maxIndex] < ability[i] && Nodes[i].available){\r\n                maxIndex = i;\r\n            }\r\n        }\r\n        /*if(flag){\r\n            // \r\n            ability[2] = ability[2]/100;\r\n            ability[3] = ability[3]/100;\r\n            for(uint j = 0; j < Length; j++){\r\n                if(ability[maxIndex] < ability[j]){\r\n                    maxIndex = j;\r\n                }\r\n            }\r\n        }*/\r\n        //  Tasks\r\n        nowTaskNode = maxIndex;\r\n        return maxIndex;\r\n    }\r\n\r\n    /*\r\n        \r\n    */\r\n    function direct_distribute_without_testTask_manager()\r\n    public\r\n    returns(uint){\r\n        uint[] memory ability = direct_distribute(totalTaskNumber);\r\n        uint unitLoad = getLoadByAddress(ability, msg.sender);  // \r\n        uint sum = matrixMulitexecWork(unitLoad, matrixLength);\r\n        //  finalMatrixSum\r\n        finalMatrixSum = finalMatrixSum + sum;\r\n        //  successTaskNumber\r\n        successTaskNumber = successTaskNumber + unitLoad;\r\n        //\r\n        if(successTaskNumber == totalTaskNumber){\r\n            return finalMatrixSum;\r\n        }\r\n        //\r\n        return 0;\r\n    }\r\n\r\n    /*\r\n        \r\n        \r\n        @param uint totalTaskNum - \r\n        @returns uint[] memory - \r\n    */\r\n    function loop_distribute_without_testTask_manager()\r\n    public\r\n    returns(uint){\r\n        // 50\r\n        uint unitLoad = matrixLength;\r\n        uint task_remained = totalTaskNumber - successTaskNumber;\r\n        while(true){\r\n            if(successTaskNumber >= totalTaskNumber){\r\n                return finalMatrixSum;\r\n            }\r\n            task_remained = totalTaskNumber - successTaskNumber;\r\n            if(unitLoad > task_remained){\r\n                unitLoad = task_remained;\r\n            }\r\n            //  successTaskNumber\r\n            uint sum = matrixMulitexecWork(unitLoad, matrixLength);\r\n            successTaskNumber = successTaskNumber + unitLoad;\r\n\r\n            //  finalMatrixSum\r\n            finalMatrixSum = finalMatrixSum + sum;\r\n        }\r\n    }\r\n\r\n    /*\r\n      \r\n      \r\n      \r\n      100      ms\r\n      400      ms\r\n      900      ms\r\n      2500     ms\r\n      3600     ms\r\n      10000 out of gas\r\n    */\r\n    function direct_distribute(uint totalTaskNum)\r\n    public\r\n    returns(uint[] memory){\r\n        Algorithm algo = new Algorithm();\r\n        uint Length = nodeNumber;\r\n        uint[] memory ability = new uint[](Length);\r\n        uint maxIndex = 0;\r\n        for(uint i = 0; i < Length; i++){\r\n            ability[i] = Nodes[i].ability;\r\n            if(ability[maxIndex] < ability[i]){\r\n                maxIndex = i;\r\n            }\r\n        }\r\n        //ability \r\n        uint GCD = algo.countNGcd(ability, Length); // \r\n        uint K = 0;\r\n        for(uint i = 0; i < Length; i++){\r\n            ability[i] = ability[i]/GCD;\r\n            K = K + ability[i];\r\n        }\r\n        uint sum = 0;\r\n        // TODO: \r\n        //\r\n        if(K <= totalTaskNum){\r\n            uint Mk = algo.getMk(K, totalTaskNum);\r\n            uint diff = uint((Mk - K)/Length);\r\n            for(uint i = 0; i < Length; i++){\r\n                uint a = ability[i]+diff;\r\n                uint b = totalTaskNum / Mk;\r\n                ability[i] = a * b;\r\n                sum = sum + ability[i];\r\n            }\r\n        } else {\r\n            uint diff = uint((K - totalTaskNum)/Length);\r\n            for(uint i = 0; i < Length; i++){\r\n                uint a = ability[i]-diff;\r\n                sum = sum + a;\r\n                ability[i] = a;\r\n            }\r\n        }\r\n        //  uint diff = uint((K - totalTaskNum)/Length) \r\n        if(sum >= totalTaskNum){\r\n            ability[maxIndex] = ability[maxIndex] - (sum - totalTaskNum);\r\n        }else{\r\n            ability[maxIndex] = ability[maxIndex] + (totalTaskNum - sum);\r\n        }\r\n\r\n        return ability;\r\n    }\r\n\r\n    /*\r\n        \r\n        \r\n        \r\n        @param uint totalTaskNum - \r\n        @returns uint[] memory - \r\n    */\r\n    function loop_distribute(uint task_remained)\r\n    public\r\n    view\r\n    returns(uint[] memory){\r\n        uint Length = nodeNumber;\r\n        uint[] memory ability = new uint[](Length);\r\n        uint K = 0;\r\n        uint maxIndex = 0;\r\n        for(uint i = 0; i < Length; i++){\r\n            ability[i] = Nodes[i].ability;\r\n            K = K + ability[i];\r\n            if(ability[maxIndex] < ability[i]){\r\n                maxIndex = i;\r\n            }\r\n        }\r\n        // TODO: \r\n        //\r\n        if(K > task_remained){\r\n            uint diff = uint((K - task_remained)/Length);\r\n            uint sum = 0;\r\n            for(uint i = 0; i < Length; i++){\r\n                uint a = ability[i]-diff;\r\n                sum = sum + a;\r\n                ability[i] = a;\r\n            }\r\n            //  uint diff = uint((K - totalTaskNum)/Length) \r\n            if(sum >= task_remained){\r\n                ability[maxIndex] = ability[maxIndex] - (sum - task_remained);\r\n            }else{\r\n                ability[maxIndex] = ability[maxIndex] + (task_remained - sum);\r\n            }\r\n        }\r\n        return ability;\r\n    }\r\n\r\n    /*\r\n        \r\n        \r\n        @param uint totalTaskNum - \r\n        @returns uint[] memory - \r\n    */\r\n    function direct_distribute_without_testTask(uint totalTaskNum)\r\n    public\r\n    view\r\n    returns(uint[] memory){\r\n        uint Length = nodeNumber;\r\n        uint[] memory ability = new uint[](Length);\r\n        uint average = uint(totalTaskNum / Length);\r\n        for(uint i = 0; i < Length; i++){\r\n            ability[i] = average;\r\n        }\r\n        // average\r\n        uint t = average * Length;\r\n        if(t <= totalTaskNumber){\r\n            ability[0] = ability[0] + (totalTaskNumber - t);\r\n        }else{\r\n            ability[0] = ability[0] - (t - totalTaskNumber);\r\n        }\r\n        return ability;\r\n    }\r\n\r\n    function getLoadByAddress(uint[] memory ability, address addr)\r\n    private\r\n    view\r\n    returns(uint){\r\n        uint Length = nodeNumber;\r\n        for(uint i = 0; i < Length; i++){\r\n            if(Nodes[i].addr == addr){\r\n                return ability[i];\r\n            }\r\n        }\r\n    }\r\n\r\n    function getAbility() public\r\n    view\r\n    returns(uint[] memory){\r\n        uint Length = nodeNumber;\r\n        uint[] memory ability = new uint[](Length);\r\n        for(uint i = 0; i < Length; i++){\r\n            ability[i] = Nodes[i].ability;\r\n        }\r\n        return ability;\r\n    }\r\n\r\n    function showNode(address addr) public\r\n    view\r\n    returns(address, uint, bool){\r\n        uint length = Nodes.length;\r\n        bool flag = false;\r\n        Participant memory node;\r\n        for(uint i = 0; i < length; i++){\r\n            if(Nodes[i].addr == addr){\r\n                node = Nodes[i];\r\n                flag = true;\r\n            }\r\n        }\r\n        return (node.addr, node.ability, node.available);\r\n    }\r\n\r\n    function connect() public returns(uint){   // solidity\r\n        Participant memory _participant = Participant(msg.sender, 0, false);\r\n        uint length = Nodes.length;\r\n        //\r\n        for(uint i = 0; i < length; i++){\r\n            if(Nodes[i].addr == msg.sender){\r\n//                emit testTask(10000);\r\n                return 10000;\r\n            }\r\n        }\r\n        Nodes.push(_participant);\r\n        nodeNumber = Nodes.length;\r\n        //\r\n//        emit testTask(10000);\r\n        return 10000;\r\n    }\r\n\r\n    function disconnect(address addr) public{\r\n        uint length = Nodes.length;\r\n        for(uint i = 0; i < length; i++){\r\n            if(Nodes[i].addr == addr){\r\n                Nodes[i] = Nodes[length-1];\r\n                Nodes.pop();\r\n            }\r\n        }\r\n        nodeNumber = Nodes.length;\r\n    }\r\n\r\n    function setAbility(uint ability, bool _manager_flag) public{\r\n        uint length = Nodes.length;\r\n        for(uint i = 0; i < length; i++){\r\n            if(Nodes[i].addr == msg.sender){\r\n                Nodes[i].ability = ability;\r\n            }\r\n        }\r\n        if(_manager_flag){\r\n            Nodes[2].ability = Nodes[2].ability / 100;\r\n            Nodes[3].ability = Nodes[3].ability / 100;\r\n        }\r\n    }\r\n\r\n    // \r\n    function kill() public{\r\n        if (organizer == msg.sender) {\r\n            selfdestruct(organizer);\r\n        }\r\n    }\r\n\r\n}",
  "sourcePath": "G:/ethereum-dev/myproject/contracts/Main.sol",
  "compiler": {
    "name": "solc",
    "version": "0.5.0+commit.1d4f565a.Emscripten.clang"
  },
  "schemaVersion": "3.0.2",
  "updatedAt": "2019-03-23T07:00:37.433Z",
  "devdoc": {
    "methods": {}
  },
  "userdoc": {
    "methods": {}
  }
}