{
  "contractName": "Main",
  "abi": [
    {
      "constant": true,
      "inputs": [],
      "name": "nodeNumber",
      "outputs": [
        {
          "name": "",
          "type": "uint256"
        }
      ],
      "payable": false,
      "stateMutability": "view",
      "type": "function",
      "signature": "0x335e2e5e"
    },
    {
      "constant": true,
      "inputs": [],
      "name": "organizer",
      "outputs": [
        {
          "name": "",
          "type": "address"
        }
      ],
      "payable": false,
      "stateMutability": "view",
      "type": "function",
      "signature": "0x61203265"
    },
    {
      "constant": true,
      "inputs": [
        {
          "name": "",
          "type": "uint256"
        }
      ],
      "name": "Nodes",
      "outputs": [
        {
          "name": "addr",
          "type": "address"
        },
        {
          "name": "ability",
          "type": "uint256"
        },
        {
          "name": "available",
          "type": "bool"
        }
      ],
      "payable": false,
      "stateMutability": "view",
      "type": "function",
      "signature": "0xa83733a4"
    },
    {
      "inputs": [],
      "payable": false,
      "stateMutability": "nonpayable",
      "type": "constructor",
      "signature": "constructor"
    },
    {
      "anonymous": false,
      "inputs": [
        {
          "indexed": false,
          "name": "addr",
          "type": "address"
        },
        {
          "indexed": false,
          "name": "x",
          "type": "uint256"
        }
      ],
      "name": "testTask",
      "type": "event",
      "signature": "0x3d2133d0478c237f144822ed1fdc7d517306b68c702018423a0b8f6f3cf6011c"
    },
    {
      "anonymous": false,
      "inputs": [
        {
          "indexed": false,
          "name": "addr",
          "type": "address"
        },
        {
          "indexed": false,
          "name": "x",
          "type": "uint256[3]"
        },
        {
          "indexed": false,
          "name": "y",
          "type": "uint256[3]"
        }
      ],
      "name": "execMatrixMulitTask",
      "type": "event",
      "signature": "0x32b7339e8a88c4c76f10176da83fb6b3a36d8bda5b1db99c2c1fce7eecf99093"
    },
    {
      "constant": true,
      "inputs": [
        {
          "name": "addr",
          "type": "address"
        }
      ],
      "name": "showNode",
      "outputs": [
        {
          "name": "",
          "type": "address"
        },
        {
          "name": "",
          "type": "uint256"
        },
        {
          "name": "",
          "type": "bool"
        }
      ],
      "payable": false,
      "stateMutability": "view",
      "type": "function",
      "signature": "0xd76837d2"
    },
    {
      "constant": false,
      "inputs": [
        {
          "name": "addr",
          "type": "address"
        }
      ],
      "name": "connect",
      "outputs": [],
      "payable": false,
      "stateMutability": "nonpayable",
      "type": "function",
      "signature": "0xee8f931b"
    },
    {
      "constant": false,
      "inputs": [
        {
          "name": "addr",
          "type": "address"
        }
      ],
      "name": "disconnect",
      "outputs": [],
      "payable": false,
      "stateMutability": "nonpayable",
      "type": "function",
      "signature": "0xcbf24339"
    },
    {
      "constant": false,
      "inputs": [
        {
          "name": "ability",
          "type": "uint256"
        }
      ],
      "name": "setAbility",
      "outputs": [],
      "payable": false,
      "stateMutability": "nonpayable",
      "type": "function",
      "signature": "0x0a5644df"
    }
  ],
  "bytecode": "0x608060405234801561001057600080fd5b50336000806101000a81548173ffffffffffffffffffffffffffffffffffffffff021916908373ffffffffffffffffffffffffffffffffffffffff16021790555060018081905550610060610140565b6060604051908101604052803373ffffffffffffffffffffffffffffffffffffffff168152602001600081526020016001151581525090506002819080600181540180825580915050906001820390600052602060002090600302016000909192909190915060008201518160000160006101000a81548173ffffffffffffffffffffffffffffffffffffffff021916908373ffffffffffffffffffffffffffffffffffffffff1602179055506020820151816001015560408201518160020160006101000a81548160ff0219169083151502179055505050505061017a565b606060405190810160405280600073ffffffffffffffffffffffffffffffffffffffff168152602001600081526020016000151581525090565b610b6e806101896000396000f3fe608060405260043610610083576000357c0100000000000000000000000000000000000000000000000000000000900463ffffffff1680630a5644df14610088578063335e2e5e146100c357806361203265146100ee578063a83733a414610145578063cbf24339146101d2578063d76837d214610223578063ee8f931b146102c6575b600080fd5b34801561009457600080fd5b506100c1600480360360208110156100ab57600080fd5b8101908080359060200190929190505050610317565b005b3480156100cf57600080fd5b506100d86103db565b6040518082815260200191505060405180910390f35b3480156100fa57600080fd5b506101036103e1565b604051808273ffffffffffffffffffffffffffffffffffffffff1673ffffffffffffffffffffffffffffffffffffffff16815260200191505060405180910390f35b34801561015157600080fd5b5061017e6004803603602081101561016857600080fd5b8101908080359060200190929190505050610406565b604051808473ffffffffffffffffffffffffffffffffffffffff1673ffffffffffffffffffffffffffffffffffffffff16815260200183815260200182151515158152602001935050505060405180910390f35b3480156101de57600080fd5b50610221600480360360208110156101f557600080fd5b81019080803573ffffffffffffffffffffffffffffffffffffffff16906020019092919050505061046c565b005b34801561022f57600080fd5b506102726004803603602081101561024657600080fd5b81019080803573ffffffffffffffffffffffffffffffffffffffff16906020019092919050505061065e565b604051808473ffffffffffffffffffffffffffffffffffffffff1673ffffffffffffffffffffffffffffffffffffffff16815260200183815260200182151515158152602001935050505060405180910390f35b3480156102d257600080fd5b50610315600480360360208110156102e957600080fd5b81019080803573ffffffffffffffffffffffffffffffffffffffff1690602001909291905050506107d3565b005b6000600280549050905060008090505b818110156103d6573373ffffffffffffffffffffffffffffffffffffffff1660028281548110151561035557fe5b906000526020600020906003020160000160009054906101000a900473ffffffffffffffffffffffffffffffffffffffff1673ffffffffffffffffffffffffffffffffffffffff1614156103c957826002828154811015156103b357fe5b9060005260206000209060030201600101819055505b8080600101915050610327565b505050565b60015481565b6000809054906101000a900473ffffffffffffffffffffffffffffffffffffffff1681565b60028181548110151561041557fe5b90600052602060002090600302016000915090508060000160009054906101000a900473ffffffffffffffffffffffffffffffffffffffff16908060010154908060020160009054906101000a900460ff16905083565b6000600280549050905060008090505b8181101561064d578273ffffffffffffffffffffffffffffffffffffffff166002828154811015156104aa57fe5b906000526020600020906003020160000160009054906101000a900473ffffffffffffffffffffffffffffffffffffffff1673ffffffffffffffffffffffffffffffffffffffff1614156106405760026001830381548110151561050a57fe5b906000526020600020906003020160028281548110151561052757fe5b90600052602060002090600302016000820160009054906101000a900473ffffffffffffffffffffffffffffffffffffffff168160000160006101000a81548173ffffffffffffffffffffffffffffffffffffffff021916908373ffffffffffffffffffffffffffffffffffffffff160217905550600182015481600101556002820160009054906101000a900460ff168160020160006101000a81548160ff021916908315150217905550905050600280548015156105e357fe5b6001900381819060005260206000209060030201600080820160006101000a81549073ffffffffffffffffffffffffffffffffffffffff021916905560018201600090556002820160006101000a81549060ff0219169055505090555b808060010191505061047c565b506002805490506001819055505050565b60008060008060028054905090506000809050610679610b08565b60008090505b838110156107b3578773ffffffffffffffffffffffffffffffffffffffff166002828154811015156106ad57fe5b906000526020600020906003020160000160009054906101000a900473ffffffffffffffffffffffffffffffffffffffff1673ffffffffffffffffffffffffffffffffffffffff1614156107a65760028181548110151561070a57fe5b9060005260206000209060030201606060405190810160405290816000820160009054906101000a900473ffffffffffffffffffffffffffffffffffffffff1673ffffffffffffffffffffffffffffffffffffffff1673ffffffffffffffffffffffffffffffffffffffff168152602001600182015481526020016002820160009054906101000a900460ff1615151515815250509150600192505b808060010191505061067f565b508060000151816020015182604001519550955095505050509193909250565b6000809054906101000a900473ffffffffffffffffffffffffffffffffffffffff1673ffffffffffffffffffffffffffffffffffffffff168173ffffffffffffffffffffffffffffffffffffffff1614151515610898576040517f08c379a00000000000000000000000000000000000000000000000000000000081526004018080602001828103825260168152602001807f6f7267616e697a65722063616e6e6f74206a6f696e210000000000000000000081525060200191505060405180910390fd5b6108a0610b08565b6060604051908101604052808373ffffffffffffffffffffffffffffffffffffffff168152602001600081526020016001151581525090506000600280549050905060008090505b818110156109e6578373ffffffffffffffffffffffffffffffffffffffff1660028281548110151561091657fe5b906000526020600020906003020160000160009054906101000a900473ffffffffffffffffffffffffffffffffffffffff1673ffffffffffffffffffffffffffffffffffffffff1614156109d9577f3d2133d0478c237f144822ed1fdc7d517306b68c702018423a0b8f6f3cf6011c84612710604051808373ffffffffffffffffffffffffffffffffffffffff1673ffffffffffffffffffffffffffffffffffffffff1681526020018281526020019250505060405180910390a1505050610b05565b80806001019150506108e8565b506002829080600181540180825580915050906001820390600052602060002090600302016000909192909190915060008201518160000160006101000a81548173ffffffffffffffffffffffffffffffffffffffff021916908373ffffffffffffffffffffffffffffffffffffffff1602179055506020820151816001015560408201518160020160006101000a81548160ff0219169083151502179055505050506002805490506001819055507f3d2133d0478c237f144822ed1fdc7d517306b68c702018423a0b8f6f3cf6011c83612710604051808373ffffffffffffffffffffffffffffffffffffffff1673ffffffffffffffffffffffffffffffffffffffff1681526020018281526020019250505060405180910390a150505b50565b606060405190810160405280600073ffffffffffffffffffffffffffffffffffffffff16815260200160008152602001600015158152509056fea165627a7a72305820d06423417129a0669bdedb4eacab7279a04e62f1d14bd80b044c56aae945616b0029",
  "source": "pragma solidity ^0.5.0;\r\n\r\nimport \"./Algorithm.sol\";\r\n\r\ncontract Main {\r\n    address public organizer;\r\n    uint public nodeNumber; //当前可用节点数\r\n    struct Participant {\r\n        address addr;\r\n        uint ability;   //算力\r\n        bool available; //当前是否可用, 值:true——当前可用, false——当前不可用\r\n    }\r\n    Participant[] public Nodes;\r\n    event testTask(address addr, uint x);   //计算x个元素的选择排序消耗的时间\r\n    event execMatrixMulitTask(address addr, uint[3] x, uint[3] y);\r\n\r\n    constructor() public {\r\n        organizer = msg.sender;\r\n        nodeNumber = 1;\r\n        Participant memory _participant = Participant(msg.sender, 0, true);\r\n        Nodes.push(_participant);\r\n    }\r\n\r\n    function showNode(address addr) public view returns(address, uint, bool){\r\n        uint length = Nodes.length;\r\n        bool flag = false;\r\n        Participant memory node;\r\n        for(uint i = 0; i < length; i++){\r\n            if(Nodes[i].addr == addr){\r\n                node = Nodes[i];\r\n                flag = true;\r\n            }\r\n        }\r\n//        require(flag);\r\n        return (node.addr, node.ability, node.available);\r\n    }\r\n\r\n    function connect(address addr) public{   // solidity不支持返回结构体数组和结构体\r\n        require(addr != organizer, \"organizer cannot join!\");\r\n        Participant memory _participant = Participant(addr, 0, true);\r\n        uint length = Nodes.length;\r\n        for(uint i = 0; i < length; i++){\r\n            if(Nodes[i].addr == addr){\r\n                emit testTask(addr, 10000);\r\n                return;\r\n            }\r\n        }\r\n        Nodes.push(_participant);\r\n        nodeNumber = Nodes.length;\r\n        //发射事件测试算力\r\n        emit testTask(addr, 10000);\r\n    }\r\n\r\n    function disconnect(address addr) public{\r\n        uint length = Nodes.length;\r\n        for(uint i = 0; i < length; i++){\r\n            if(Nodes[i].addr == addr){\r\n                Nodes[i] = Nodes[length-1];\r\n                Nodes.pop();\r\n            }\r\n        }\r\n        nodeNumber = Nodes.length;\r\n    }\r\n\r\n    function setAbility(uint ability) public{\r\n        uint length = Nodes.length;\r\n        for(uint i = 0; i < length; i++){\r\n            if(Nodes[i].addr == msg.sender){\r\n                Nodes[i].ability = ability;\r\n            }\r\n        }\r\n    }\r\n\r\n}",
  "sourcePath": "G:/ethereum-dev/myproject/contracts/Main.sol",
  "compiler": {
    "name": "solc",
    "version": "0.5.0+commit.1d4f565a.Emscripten.clang"
  },
  "schemaVersion": "3.0.2",
  "updatedAt": "2019-03-01T06:43:20.344Z",
  "devdoc": {
    "methods": {}
  },
  "userdoc": {
    "methods": {}
  }
}