{
  "contractName": "Main",
  "abi": [
    {
      "constant": true,
      "inputs": [],
      "name": "nodeNumber",
      "outputs": [
        {
          "name": "",
          "type": "uint256"
        }
      ],
      "payable": false,
      "stateMutability": "view",
      "type": "function"
    },
    {
      "constant": true,
      "inputs": [],
      "name": "organizer",
      "outputs": [
        {
          "name": "",
          "type": "address"
        }
      ],
      "payable": false,
      "stateMutability": "view",
      "type": "function"
    },
    {
      "constant": true,
      "inputs": [
        {
          "name": "",
          "type": "uint256"
        }
      ],
      "name": "Nodes",
      "outputs": [
        {
          "name": "addr",
          "type": "address"
        },
        {
          "name": "ability",
          "type": "uint256"
        },
        {
          "name": "available",
          "type": "bool"
        }
      ],
      "payable": false,
      "stateMutability": "view",
      "type": "function"
    },
    {
      "inputs": [],
      "payable": false,
      "stateMutability": "nonpayable",
      "type": "constructor"
    },
    {
      "constant": true,
      "inputs": [
        {
          "name": "addr",
          "type": "address"
        }
      ],
      "name": "showNode",
      "outputs": [
        {
          "name": "",
          "type": "address"
        },
        {
          "name": "",
          "type": "uint256"
        },
        {
          "name": "",
          "type": "bool"
        }
      ],
      "payable": false,
      "stateMutability": "view",
      "type": "function"
    },
    {
      "constant": false,
      "inputs": [
        {
          "name": "addr",
          "type": "address"
        }
      ],
      "name": "connect",
      "outputs": [],
      "payable": false,
      "stateMutability": "nonpayable",
      "type": "function"
    },
    {
      "constant": false,
      "inputs": [
        {
          "name": "addr",
          "type": "address"
        }
      ],
      "name": "disconnect",
      "outputs": [],
      "payable": false,
      "stateMutability": "nonpayable",
      "type": "function"
    }
  ],
  "bytecode": "0x608060405234801561001057600080fd5b50336000806101000a81548173ffffffffffffffffffffffffffffffffffffffff021916908373ffffffffffffffffffffffffffffffffffffffff16021790555060018081905550610060610140565b6060604051908101604052803373ffffffffffffffffffffffffffffffffffffffff168152602001600081526020016001151581525090506002819080600181540180825580915050906001820390600052602060002090600302016000909192909190915060008201518160000160006101000a81548173ffffffffffffffffffffffffffffffffffffffff021916908373ffffffffffffffffffffffffffffffffffffffff1602179055506020820151816001015560408201518160020160006101000a81548160ff0219169083151502179055505050505061017a565b606060405190810160405280600073ffffffffffffffffffffffffffffffffffffffff168152602001600081526020016000151581525090565b61098a806101896000396000f3fe608060405260043610610078576000357c0100000000000000000000000000000000000000000000000000000000900463ffffffff168063335e2e5e1461007d57806361203265146100a8578063a83733a4146100ff578063cbf243391461018c578063d76837d2146101dd578063ee8f931b14610280575b600080fd5b34801561008957600080fd5b506100926102d1565b6040518082815260200191505060405180910390f35b3480156100b457600080fd5b506100bd6102d7565b604051808273ffffffffffffffffffffffffffffffffffffffff1673ffffffffffffffffffffffffffffffffffffffff16815260200191505060405180910390f35b34801561010b57600080fd5b506101386004803603602081101561012257600080fd5b81019080803590602001909291905050506102fc565b604051808473ffffffffffffffffffffffffffffffffffffffff1673ffffffffffffffffffffffffffffffffffffffff16815260200183815260200182151515158152602001935050505060405180910390f35b34801561019857600080fd5b506101db600480360360208110156101af57600080fd5b81019080803573ffffffffffffffffffffffffffffffffffffffff169060200190929190505050610362565b005b3480156101e957600080fd5b5061022c6004803603602081101561020057600080fd5b81019080803573ffffffffffffffffffffffffffffffffffffffff169060200190929190505050610554565b604051808473ffffffffffffffffffffffffffffffffffffffff1673ffffffffffffffffffffffffffffffffffffffff16815260200183815260200182151515158152602001935050505060405180910390f35b34801561028c57600080fd5b506102cf600480360360208110156102a357600080fd5b81019080803573ffffffffffffffffffffffffffffffffffffffff1690602001909291905050506106c9565b005b60015481565b6000809054906101000a900473ffffffffffffffffffffffffffffffffffffffff1681565b60028181548110151561030b57fe5b90600052602060002090600302016000915090508060000160009054906101000a900473ffffffffffffffffffffffffffffffffffffffff16908060010154908060020160009054906101000a900460ff16905083565b6000600280549050905060008090505b81811015610543578273ffffffffffffffffffffffffffffffffffffffff166002828154811015156103a057fe5b906000526020600020906003020160000160009054906101000a900473ffffffffffffffffffffffffffffffffffffffff1673ffffffffffffffffffffffffffffffffffffffff1614156105365760026001830381548110151561040057fe5b906000526020600020906003020160028281548110151561041d57fe5b90600052602060002090600302016000820160009054906101000a900473ffffffffffffffffffffffffffffffffffffffff168160000160006101000a81548173ffffffffffffffffffffffffffffffffffffffff021916908373ffffffffffffffffffffffffffffffffffffffff160217905550600182015481600101556002820160009054906101000a900460ff168160020160006101000a81548160ff021916908315150217905550905050600280548015156104d957fe5b6001900381819060005260206000209060030201600080820160006101000a81549073ffffffffffffffffffffffffffffffffffffffff021916905560018201600090556002820160006101000a81549060ff0219169055505090555b8080600101915050610372565b506002805490506001819055505050565b6000806000806002805490509050600080905061056f610924565b60008090505b838110156106a9578773ffffffffffffffffffffffffffffffffffffffff166002828154811015156105a357fe5b906000526020600020906003020160000160009054906101000a900473ffffffffffffffffffffffffffffffffffffffff1673ffffffffffffffffffffffffffffffffffffffff16141561069c5760028181548110151561060057fe5b9060005260206000209060030201606060405190810160405290816000820160009054906101000a900473ffffffffffffffffffffffffffffffffffffffff1673ffffffffffffffffffffffffffffffffffffffff1673ffffffffffffffffffffffffffffffffffffffff168152602001600182015481526020016002820160009054906101000a900460ff1615151515815250509150600192505b8080600101915050610575565b508060000151816020015182604001519550955095505050509193909250565b6000809054906101000a900473ffffffffffffffffffffffffffffffffffffffff1673ffffffffffffffffffffffffffffffffffffffff168173ffffffffffffffffffffffffffffffffffffffff161415151561078e576040517f08c379a00000000000000000000000000000000000000000000000000000000081526004018080602001828103825260168152602001807f6f7267616e697a65722063616e6e6f74206a6f696e210000000000000000000081525060200191505060405180910390fd5b610796610924565b6060604051908101604052808373ffffffffffffffffffffffffffffffffffffffff168152602001600081526020016001151581525090506000600280549050905060008090505b8181101561086f578373ffffffffffffffffffffffffffffffffffffffff1660028281548110151561080c57fe5b906000526020600020906003020160000160009054906101000a900473ffffffffffffffffffffffffffffffffffffffff1673ffffffffffffffffffffffffffffffffffffffff16141561086257505050610921565b80806001019150506107de565b506002829080600181540180825580915050906001820390600052602060002090600302016000909192909190915060008201518160000160006101000a81548173ffffffffffffffffffffffffffffffffffffffff021916908373ffffffffffffffffffffffffffffffffffffffff1602179055506020820151816001015560408201518160020160006101000a81548160ff02191690831515021790555050505060028054905060018190555050505b50565b606060405190810160405280600073ffffffffffffffffffffffffffffffffffffffff16815260200160008152602001600015158152509056fea165627a7a72305820d4298c7b39a31a537ab9b7f7029ac438465352e9cb6c43bfaeada99af10b0c650029",
  "source": "pragma solidity ^0.5.0;\r\n\r\nimport \"./Algorithm.sol\";\r\n\r\ncontract Main {\r\n    address public organizer;\r\n    uint public nodeNumber; //当前可用节点数\r\n    struct Participant {\r\n        address addr;\r\n        uint ability;   //算力\r\n        bool available; //当前是否可用, 值:true——当前可用, false——当前不可用\r\n    }\r\n    Participant[] public Nodes;\r\n\r\n    constructor() public {\r\n        organizer = msg.sender;\r\n        nodeNumber = 1;\r\n        Participant memory _participant = Participant(msg.sender, 0, true);\r\n        Nodes.push(_participant);\r\n    }\r\n\r\n    function showNode(address addr) public view returns(address, uint, bool){\r\n        uint length = Nodes.length;\r\n        bool flag = false;\r\n        Participant memory node;\r\n        for(uint i = 0; i < length; i++){\r\n            if(Nodes[i].addr == addr){\r\n                node = Nodes[i];\r\n                flag = true;\r\n            }\r\n        }\r\n//        require(flag);\r\n        return (node.addr, node.ability, node.available);\r\n    }\r\n\r\n    function connect(address addr) public{   // solidity不支持返回结构体数组和结构体\r\n        require(addr != organizer, \"organizer cannot join!\");\r\n        Participant memory _participant = Participant(addr, 0, true);\r\n        uint length = Nodes.length;\r\n        for(uint i = 0; i < length; i++){\r\n            if(Nodes[i].addr == addr){\r\n                return;\r\n            }\r\n        }\r\n        Nodes.push(_participant);\r\n        nodeNumber = Nodes.length;\r\n    }\r\n\r\n    function disconnect(address addr) public{\r\n        uint length = Nodes.length;\r\n        for(uint i = 0; i < length; i++){\r\n            if(Nodes[i].addr == addr){\r\n                Nodes[i] = Nodes[length-1];\r\n                Nodes.pop();\r\n            }\r\n        }\r\n        nodeNumber = Nodes.length;\r\n    }\r\n\r\n}",
  "sourcePath": "G:/ethereum-dev/myproject/contracts/Main.sol",
  "compiler": {
    "name": "solc",
    "version": "0.5.0+commit.1d4f565a.Emscripten.clang"
  },
  "schemaVersion": "3.0.2",
  "updatedAt": "2019-02-28T08:00:03.633Z",
  "devdoc": {
    "methods": {}
  },
  "userdoc": {
    "methods": {}
  }
}