{
  "contractName": "Utils",
  "abi": [
    {
      "constant": false,
      "inputs": [
        {
          "name": "n",
          "type": "uint256"
        },
        {
          "name": "m",
          "type": "uint256"
        }
      ],
      "name": "gcd",
      "outputs": [
        {
          "name": "",
          "type": "uint256"
        }
      ],
      "payable": false,
      "stateMutability": "nonpayable",
      "type": "function"
    }
  ],
  "bytecode": "0x608060405234801561001057600080fd5b50610105806100206000396000f3fe608060405260043610603f576000357c0100000000000000000000000000000000000000000000000000000000900463ffffffff168063b9650dac146044575b600080fd5b348015604f57600080fd5b50608360048036036040811015606457600080fd5b8101908080359060200190929190803590602001909291905050506099565b6040518082815260200191505060405180910390f35b60008183101560af576000839050829350809250505b600082141560be5782905060d3565b60d082838581151560cb57fe5b066099565b90505b9291505056fea165627a7a723058207fe3d8ac1be82b244088c7cce0df8492177f6feab3a185f683691f847177a9800029",
  "source": "pragma solidity ^0.5.0;\r\n\r\ncontract Utils{\r\n    //求两个数最大公约数\r\n    function gcd(uint n, uint m) public returns(uint){\r\n        if(n < m){\r\n            uint t = n;\r\n            n = m;\r\n            m = t;\r\n        }\r\n        if(m == 0){\r\n            return n;\r\n        }\r\n        return gcd(m, n%m);\r\n    }\r\n}",
  "sourcePath": "G:\\ethereum-dev\\myproject\\contracts\\Utils.sol",
  "compiler": {
    "name": "solc",
    "version": "0.5.0+commit.1d4f565a.Emscripten.clang"
  },
  "schemaVersion": "3.0.2",
  "updatedAt": "2019-03-22T08:18:59.659Z",
  "devdoc": {
    "methods": {}
  },
  "userdoc": {
    "methods": {}
  }
}